{
  "_format": "hh-sol-artifact-1",
  "contractName": "JillMeta",
  "sourceName": "contracts/nfts/jillMeta.sol",
  "abi": [
    {
      "inputs": [
        {
          "internalType": "string",
          "name": "initBaseURI",
          "type": "string"
        },
        {
          "internalType": "string",
          "name": "initNotRevealedUri",
          "type": "string"
        }
      ],
      "stateMutability": "nonpayable",
      "type": "constructor"
    },
    {
      "anonymous": false,
      "inputs": [
        {
          "indexed": true,
          "internalType": "address",
          "name": "owner",
          "type": "address"
        },
        {
          "indexed": true,
          "internalType": "address",
          "name": "approved",
          "type": "address"
        },
        {
          "indexed": true,
          "internalType": "uint256",
          "name": "tokenId",
          "type": "uint256"
        }
      ],
      "name": "Approval",
      "type": "event"
    },
    {
      "anonymous": false,
      "inputs": [
        {
          "indexed": true,
          "internalType": "address",
          "name": "owner",
          "type": "address"
        },
        {
          "indexed": true,
          "internalType": "address",
          "name": "operator",
          "type": "address"
        },
        {
          "indexed": false,
          "internalType": "bool",
          "name": "approved",
          "type": "bool"
        }
      ],
      "name": "ApprovalForAll",
      "type": "event"
    },
    {
      "anonymous": false,
      "inputs": [
        {
          "indexed": true,
          "internalType": "address",
          "name": "previousOwner",
          "type": "address"
        },
        {
          "indexed": true,
          "internalType": "address",
          "name": "newOwner",
          "type": "address"
        }
      ],
      "name": "OwnershipTransferred",
      "type": "event"
    },
    {
      "anonymous": false,
      "inputs": [
        {
          "indexed": true,
          "internalType": "address",
          "name": "from",
          "type": "address"
        },
        {
          "indexed": true,
          "internalType": "address",
          "name": "to",
          "type": "address"
        },
        {
          "indexed": true,
          "internalType": "uint256",
          "name": "tokenId",
          "type": "uint256"
        }
      ],
      "name": "Transfer",
      "type": "event"
    },
    {
      "inputs": [],
      "name": "MAX_SUPPLY",
      "outputs": [
        {
          "internalType": "uint256",
          "name": "",
          "type": "uint256"
        }
      ],
      "stateMutability": "view",
      "type": "function"
    },
    {
      "inputs": [],
      "name": "_isSaleActive",
      "outputs": [
        {
          "internalType": "bool",
          "name": "",
          "type": "bool"
        }
      ],
      "stateMutability": "view",
      "type": "function"
    },
    {
      "inputs": [],
      "name": "_revealed",
      "outputs": [
        {
          "internalType": "bool",
          "name": "",
          "type": "bool"
        }
      ],
      "stateMutability": "view",
      "type": "function"
    },
    {
      "inputs": [
        {
          "internalType": "address",
          "name": "to",
          "type": "address"
        },
        {
          "internalType": "uint256",
          "name": "tokenId",
          "type": "uint256"
        }
      ],
      "name": "approve",
      "outputs": [],
      "stateMutability": "nonpayable",
      "type": "function"
    },
    {
      "inputs": [
        {
          "internalType": "address",
          "name": "owner",
          "type": "address"
        }
      ],
      "name": "balanceOf",
      "outputs": [
        {
          "internalType": "uint256",
          "name": "",
          "type": "uint256"
        }
      ],
      "stateMutability": "view",
      "type": "function"
    },
    {
      "inputs": [],
      "name": "baseExtension",
      "outputs": [
        {
          "internalType": "string",
          "name": "",
          "type": "string"
        }
      ],
      "stateMutability": "view",
      "type": "function"
    },
    {
      "inputs": [],
      "name": "flipReveal",
      "outputs": [],
      "stateMutability": "nonpayable",
      "type": "function"
    },
    {
      "inputs": [],
      "name": "flipSaleActive",
      "outputs": [],
      "stateMutability": "nonpayable",
      "type": "function"
    },
    {
      "inputs": [
        {
          "internalType": "uint256",
          "name": "tokenId",
          "type": "uint256"
        }
      ],
      "name": "getApproved",
      "outputs": [
        {
          "internalType": "address",
          "name": "",
          "type": "address"
        }
      ],
      "stateMutability": "view",
      "type": "function"
    },
    {
      "inputs": [
        {
          "internalType": "address",
          "name": "owner",
          "type": "address"
        },
        {
          "internalType": "address",
          "name": "operator",
          "type": "address"
        }
      ],
      "name": "isApprovedForAll",
      "outputs": [
        {
          "internalType": "bool",
          "name": "",
          "type": "bool"
        }
      ],
      "stateMutability": "view",
      "type": "function"
    },
    {
      "inputs": [],
      "name": "maxBalance",
      "outputs": [
        {
          "internalType": "uint256",
          "name": "",
          "type": "uint256"
        }
      ],
      "stateMutability": "view",
      "type": "function"
    },
    {
      "inputs": [],
      "name": "maxMint",
      "outputs": [
        {
          "internalType": "uint256",
          "name": "",
          "type": "uint256"
        }
      ],
      "stateMutability": "view",
      "type": "function"
    },
    {
      "inputs": [
        {
          "internalType": "uint256",
          "name": "tokenQuantity",
          "type": "uint256"
        }
      ],
      "name": "mintJillMeta",
      "outputs": [],
      "stateMutability": "payable",
      "type": "function"
    },
    {
      "inputs": [],
      "name": "mintPrice",
      "outputs": [
        {
          "internalType": "uint256",
          "name": "",
          "type": "uint256"
        }
      ],
      "stateMutability": "view",
      "type": "function"
    },
    {
      "inputs": [],
      "name": "name",
      "outputs": [
        {
          "internalType": "string",
          "name": "",
          "type": "string"
        }
      ],
      "stateMutability": "view",
      "type": "function"
    },
    {
      "inputs": [],
      "name": "notRevealedUri",
      "outputs": [
        {
          "internalType": "string",
          "name": "",
          "type": "string"
        }
      ],
      "stateMutability": "view",
      "type": "function"
    },
    {
      "inputs": [],
      "name": "owner",
      "outputs": [
        {
          "internalType": "address",
          "name": "",
          "type": "address"
        }
      ],
      "stateMutability": "view",
      "type": "function"
    },
    {
      "inputs": [
        {
          "internalType": "uint256",
          "name": "tokenId",
          "type": "uint256"
        }
      ],
      "name": "ownerOf",
      "outputs": [
        {
          "internalType": "address",
          "name": "",
          "type": "address"
        }
      ],
      "stateMutability": "view",
      "type": "function"
    },
    {
      "inputs": [],
      "name": "renounceOwnership",
      "outputs": [],
      "stateMutability": "nonpayable",
      "type": "function"
    },
    {
      "inputs": [
        {
          "internalType": "address",
          "name": "from",
          "type": "address"
        },
        {
          "internalType": "address",
          "name": "to",
          "type": "address"
        },
        {
          "internalType": "uint256",
          "name": "tokenId",
          "type": "uint256"
        }
      ],
      "name": "safeTransferFrom",
      "outputs": [],
      "stateMutability": "nonpayable",
      "type": "function"
    },
    {
      "inputs": [
        {
          "internalType": "address",
          "name": "from",
          "type": "address"
        },
        {
          "internalType": "address",
          "name": "to",
          "type": "address"
        },
        {
          "internalType": "uint256",
          "name": "tokenId",
          "type": "uint256"
        },
        {
          "internalType": "bytes",
          "name": "_data",
          "type": "bytes"
        }
      ],
      "name": "safeTransferFrom",
      "outputs": [],
      "stateMutability": "nonpayable",
      "type": "function"
    },
    {
      "inputs": [
        {
          "internalType": "address",
          "name": "operator",
          "type": "address"
        },
        {
          "internalType": "bool",
          "name": "approved",
          "type": "bool"
        }
      ],
      "name": "setApprovalForAll",
      "outputs": [],
      "stateMutability": "nonpayable",
      "type": "function"
    },
    {
      "inputs": [
        {
          "internalType": "string",
          "name": "_newBaseExtension",
          "type": "string"
        }
      ],
      "name": "setBaseExtension",
      "outputs": [],
      "stateMutability": "nonpayable",
      "type": "function"
    },
    {
      "inputs": [
        {
          "internalType": "string",
          "name": "_newBaseURI",
          "type": "string"
        }
      ],
      "name": "setBaseURI",
      "outputs": [],
      "stateMutability": "nonpayable",
      "type": "function"
    },
    {
      "inputs": [
        {
          "internalType": "uint256",
          "name": "_maxBalance",
          "type": "uint256"
        }
      ],
      "name": "setMaxBalance",
      "outputs": [],
      "stateMutability": "nonpayable",
      "type": "function"
    },
    {
      "inputs": [
        {
          "internalType": "uint256",
          "name": "_maxMint",
          "type": "uint256"
        }
      ],
      "name": "setMaxMint",
      "outputs": [],
      "stateMutability": "nonpayable",
      "type": "function"
    },
    {
      "inputs": [
        {
          "internalType": "uint256",
          "name": "_mintPrice",
          "type": "uint256"
        }
      ],
      "name": "setMintPrice",
      "outputs": [],
      "stateMutability": "nonpayable",
      "type": "function"
    },
    {
      "inputs": [
        {
          "internalType": "string",
          "name": "_notRevealedURI",
          "type": "string"
        }
      ],
      "name": "setNotRevealedURI",
      "outputs": [],
      "stateMutability": "nonpayable",
      "type": "function"
    },
    {
      "inputs": [
        {
          "internalType": "bytes4",
          "name": "interfaceId",
          "type": "bytes4"
        }
      ],
      "name": "supportsInterface",
      "outputs": [
        {
          "internalType": "bool",
          "name": "",
          "type": "bool"
        }
      ],
      "stateMutability": "view",
      "type": "function"
    },
    {
      "inputs": [],
      "name": "symbol",
      "outputs": [
        {
          "internalType": "string",
          "name": "",
          "type": "string"
        }
      ],
      "stateMutability": "view",
      "type": "function"
    },
    {
      "inputs": [
        {
          "internalType": "uint256",
          "name": "index",
          "type": "uint256"
        }
      ],
      "name": "tokenByIndex",
      "outputs": [
        {
          "internalType": "uint256",
          "name": "",
          "type": "uint256"
        }
      ],
      "stateMutability": "view",
      "type": "function"
    },
    {
      "inputs": [
        {
          "internalType": "address",
          "name": "owner",
          "type": "address"
        },
        {
          "internalType": "uint256",
          "name": "index",
          "type": "uint256"
        }
      ],
      "name": "tokenOfOwnerByIndex",
      "outputs": [
        {
          "internalType": "uint256",
          "name": "",
          "type": "uint256"
        }
      ],
      "stateMutability": "view",
      "type": "function"
    },
    {
      "inputs": [
        {
          "internalType": "uint256",
          "name": "tokenId",
          "type": "uint256"
        }
      ],
      "name": "tokenURI",
      "outputs": [
        {
          "internalType": "string",
          "name": "",
          "type": "string"
        }
      ],
      "stateMutability": "view",
      "type": "function"
    },
    {
      "inputs": [],
      "name": "totalSupply",
      "outputs": [
        {
          "internalType": "uint256",
          "name": "",
          "type": "uint256"
        }
      ],
      "stateMutability": "view",
      "type": "function"
    },
    {
      "inputs": [
        {
          "internalType": "address",
          "name": "from",
          "type": "address"
        },
        {
          "internalType": "address",
          "name": "to",
          "type": "address"
        },
        {
          "internalType": "uint256",
          "name": "tokenId",
          "type": "uint256"
        }
      ],
      "name": "transferFrom",
      "outputs": [],
      "stateMutability": "nonpayable",
      "type": "function"
    },
    {
      "inputs": [
        {
          "internalType": "address",
          "name": "newOwner",
          "type": "address"
        }
      ],
      "name": "transferOwnership",
      "outputs": [],
      "stateMutability": "nonpayable",
      "type": "function"
    },
    {
      "inputs": [
        {
          "internalType": "address",
          "name": "to",
          "type": "address"
        }
      ],
      "name": "withdraw",
      "outputs": [],
      "stateMutability": "nonpayable",
      "type": "function"
    }
  ],
  "bytecode": "0x60806040526000600a60146101000a81548160ff0219169083151502179055506000600a60156101000a81548160ff021916908315150217905550660110d9316ec000600b556001600c556001600d556040518060400160405280600581526020017f2e6a736f6e000000000000000000000000000000000000000000000000000000815250601090805190602001906200009c92919062000408565b50348015620000aa57600080fd5b5060405162004e9338038062004e938339818101604052810190620000d091906200052a565b6040518060400160405280600981526020017f4a696c6c204d65746100000000000000000000000000000000000000000000008152506040518060400160405280600281526020017f4a4d00000000000000000000000000000000000000000000000000000000000081525081600090805190602001906200015492919062000408565b5080600190805190602001906200016d92919062000408565b5050506200019062000184620001ba60201b60201c565b620001c260201b60201c565b620001a1826200028860201b60201c565b620001b2816200033360201b60201c565b505062000790565b600033905090565b6000600a60009054906101000a900473ffffffffffffffffffffffffffffffffffffffff16905081600a60006101000a81548173ffffffffffffffffffffffffffffffffffffffff021916908373ffffffffffffffffffffffffffffffffffffffff1602179055508173ffffffffffffffffffffffffffffffffffffffff168173ffffffffffffffffffffffffffffffffffffffff167f8be0079c531659141344cd1fd0a4f28419497f9722a3daafe3b4186f6b6457e060405160405180910390a35050565b62000298620001ba60201b60201c565b73ffffffffffffffffffffffffffffffffffffffff16620002be620003de60201b60201c565b73ffffffffffffffffffffffffffffffffffffffff161462000317576040517f08c379a00000000000000000000000000000000000000000000000000000000081526004016200030e90620005c4565b60405180910390fd5b80600e90805190602001906200032f92919062000408565b5050565b62000343620001ba60201b60201c565b73ffffffffffffffffffffffffffffffffffffffff1662000369620003de60201b60201c565b73ffffffffffffffffffffffffffffffffffffffff1614620003c2576040517f08c379a0000000000000000000000000000000000000000000000000000000008152600401620003b990620005c4565b60405180910390fd5b80600f9080519060200190620003da92919062000408565b5050565b6000600a60009054906101000a900473ffffffffffffffffffffffffffffffffffffffff16905090565b82805462000416906200068c565b90600052602060002090601f0160209004810192826200043a576000855562000486565b82601f106200045557805160ff191683800117855562000486565b8280016001018555821562000486579182015b828111156200048557825182559160200191906001019062000468565b5b50905062000495919062000499565b5090565b5b80821115620004b45760008160009055506001016200049a565b5090565b6000620004cf620004c9846200060f565b620005e6565b905082815260208101848484011115620004e857600080fd5b620004f584828562000656565b509392505050565b600082601f8301126200050f57600080fd5b815162000521848260208601620004b8565b91505092915050565b600080604083850312156200053e57600080fd5b600083015167ffffffffffffffff8111156200055957600080fd5b6200056785828601620004fd565b925050602083015167ffffffffffffffff8111156200058557600080fd5b6200059385828601620004fd565b9150509250929050565b6000620005ac60208362000645565b9150620005b98262000767565b602082019050919050565b60006020820190508181036000830152620005df816200059d565b9050919050565b6000620005f262000605565b9050620006008282620006c2565b919050565b6000604051905090565b600067ffffffffffffffff8211156200062d576200062c62000727565b5b620006388262000756565b9050602081019050919050565b600082825260208201905092915050565b60005b838110156200067657808201518184015260208101905062000659565b8381111562000686576000848401525b50505050565b60006002820490506001821680620006a557607f821691505b60208210811415620006bc57620006bb620006f8565b5b50919050565b620006cd8262000756565b810181811067ffffffffffffffff82111715620006ef57620006ee62000727565b5b80604052505050565b7f4e487b7100000000000000000000000000000000000000000000000000000000600052602260045260246000fd5b7f4e487b7100000000000000000000000000000000000000000000000000000000600052604160045260246000fd5b6000601f19601f8301169050919050565b7f4f776e61626c653a2063616c6c6572206973206e6f7420746865206f776e6572600082015250565b6146f380620007a06000396000f3fe60806040526004361061021a5760003560e01c80637080d6fc11610123578063b28d268a116100ab578063de8b51e11161006f578063de8b51e1146107b2578063e985e9c5146107c9578063f2c4ce1e14610806578063f2fde38b1461082f578063f4a0a528146108585761021a565b8063b28d268a146106dc578063b88d4fde146106f8578063c668286214610721578063c87b56dd1461074c578063da3ef23f146107895761021a565b80637501f741116100f25780637501f741146106095780638da5cb5b1461063457806395d89b411461065f5780639d51d9b71461068a578063a22cb465146106b35761021a565b80637080d6fc1461055f57806370a082311461058a578063715018a6146105c757806373ad468a146105de5761021a565b80633b84d9c6116101a6578063547520fe11610175578063547520fe1461047a57806355f804b3146104a35780636352211e146104cc5780636817c76c146105095780636ebeac85146105345761021a565b80633b84d9c6146103d457806342842e0e146103eb5780634f6ccce71461041457806351cff8d9146104515761021a565b8063095ea7b3116101ed578063095ea7b3146102ef57806318160ddd1461031857806323b872dd146103435780632f745c591461036c57806332cb6b0c146103a95761021a565b806301ffc9a71461021f57806306fdde031461025c578063081812fc14610287578063081c8c44146102c4575b600080fd5b34801561022b57600080fd5b5061024660048036038101906102419190613300565b610881565b60405161025391906138ec565b60405180910390f35b34801561026857600080fd5b506102716108fb565b60405161027e9190613907565b60405180910390f35b34801561029357600080fd5b506102ae60048036038101906102a99190613393565b61098d565b6040516102bb9190613885565b60405180910390f35b3480156102d057600080fd5b506102d9610a12565b6040516102e69190613907565b60405180910390f35b3480156102fb57600080fd5b50610316600480360381019061031191906132c4565b610aa0565b005b34801561032457600080fd5b5061032d610bb8565b60405161033a9190613c09565b60405180910390f35b34801561034f57600080fd5b5061036a600480360381019061036591906131be565b610bc5565b005b34801561037857600080fd5b50610393600480360381019061038e91906132c4565b610c25565b6040516103a09190613c09565b60405180910390f35b3480156103b557600080fd5b506103be610cca565b6040516103cb9190613c09565b60405180910390f35b3480156103e057600080fd5b506103e9610ccf565b005b3480156103f757600080fd5b50610412600480360381019061040d91906131be565b610d77565b005b34801561042057600080fd5b5061043b60048036038101906104369190613393565b610d97565b6040516104489190613c09565b60405180910390f35b34801561045d57600080fd5b5061047860048036038101906104739190613159565b610e2e565b005b34801561048657600080fd5b506104a1600480360381019061049c9190613393565b610efa565b005b3480156104af57600080fd5b506104ca60048036038101906104c59190613352565b610f80565b005b3480156104d857600080fd5b506104f360048036038101906104ee9190613393565b611016565b6040516105009190613885565b60405180910390f35b34801561051557600080fd5b5061051e6110c8565b60405161052b9190613c09565b60405180910390f35b34801561054057600080fd5b506105496110ce565b60405161055691906138ec565b60405180910390f35b34801561056b57600080fd5b506105746110e1565b60405161058191906138ec565b60405180910390f35b34801561059657600080fd5b506105b160048036038101906105ac9190613159565b6110f4565b6040516105be9190613c09565b60405180910390f35b3480156105d357600080fd5b506105dc6111ac565b005b3480156105ea57600080fd5b506105f3611234565b6040516106009190613c09565b60405180910390f35b34801561061557600080fd5b5061061e61123a565b60405161062b9190613c09565b60405180910390f35b34801561064057600080fd5b50610649611240565b6040516106569190613885565b60405180910390f35b34801561066b57600080fd5b5061067461126a565b6040516106819190613907565b60405180910390f35b34801561069657600080fd5b506106b160048036038101906106ac9190613393565b6112fc565b005b3480156106bf57600080fd5b506106da60048036038101906106d59190613288565b611382565b005b6106f660048036038101906106f19190613393565b611398565b005b34801561070457600080fd5b5061071f600480360381019061071a919061320d565b611536565b005b34801561072d57600080fd5b50610736611598565b6040516107439190613907565b60405180910390f35b34801561075857600080fd5b50610773600480360381019061076e9190613393565b611626565b6040516107809190613907565b60405180910390f35b34801561079557600080fd5b506107b060048036038101906107ab9190613352565b61184a565b005b3480156107be57600080fd5b506107c76118e0565b005b3480156107d557600080fd5b506107f060048036038101906107eb9190613182565b611988565b6040516107fd91906138ec565b60405180910390f35b34801561081257600080fd5b5061082d60048036038101906108289190613352565b611a1c565b005b34801561083b57600080fd5b5061085660048036038101906108519190613159565b611ab2565b005b34801561086457600080fd5b5061087f600480360381019061087a9190613393565b611baa565b005b60007f780e9d63000000000000000000000000000000000000000000000000000000007bffffffffffffffffffffffffffffffffffffffffffffffffffffffff1916827bffffffffffffffffffffffffffffffffffffffffffffffffffffffff191614806108f457506108f382611c30565b5b9050919050565b60606000805461090a90613ece565b80601f016020809104026020016040519081016040528092919081815260200182805461093690613ece565b80156109835780601f1061095857610100808354040283529160200191610983565b820191906000526020600020905b81548152906001019060200180831161096657829003601f168201915b5050505050905090565b600061099882611d12565b6109d7576040517f08c379a00000000000000000000000000000000000000000000000000000000081526004016109ce90613b09565b60405180910390fd5b6004600083815260200190815260200160002060009054906101000a900473ffffffffffffffffffffffffffffffffffffffff169050919050565b600f8054610a1f90613ece565b80601f0160208091040260200160405190810160405280929190818152602001828054610a4b90613ece565b8015610a985780601f10610a6d57610100808354040283529160200191610a98565b820191906000526020600020905b815481529060010190602001808311610a7b57829003601f168201915b505050505081565b6000610aab82611016565b90508073ffffffffffffffffffffffffffffffffffffffff168373ffffffffffffffffffffffffffffffffffffffff161415610b1c576040517f08c379a0000000000000000000000000000000000000000000000000000000008152600401610b1390613b89565b60405180910390fd5b8073ffffffffffffffffffffffffffffffffffffffff16610b3b611d7e565b73ffffffffffffffffffffffffffffffffffffffff161480610b6a5750610b6981610b64611d7e565b611988565b5b610ba9576040517f08c379a0000000000000000000000000000000000000000000000000000000008152600401610ba090613a89565b60405180910390fd5b610bb38383611d86565b505050565b6000600880549050905090565b610bd6610bd0611d7e565b82611e3f565b610c15576040517f08c379a0000000000000000000000000000000000000000000000000000000008152600401610c0c90613ba9565b60405180910390fd5b610c20838383611f1d565b505050565b6000610c30836110f4565b8210610c71576040517f08c379a0000000000000000000000000000000000000000000000000000000008152600401610c6890613949565b60405180910390fd5b600660008473ffffffffffffffffffffffffffffffffffffffff1673ffffffffffffffffffffffffffffffffffffffff168152602001908152602001600020600083815260200190815260200160002054905092915050565b600a81565b610cd7611d7e565b73ffffffffffffffffffffffffffffffffffffffff16610cf5611240565b73ffffffffffffffffffffffffffffffffffffffff1614610d4b576040517f08c379a0000000000000000000000000000000000000000000000000000000008152600401610d4290613b29565b60405180910390fd5b600a60159054906101000a900460ff1615600a60156101000a81548160ff021916908315150217905550565b610d9283838360405180602001604052806000815250611536565b505050565b6000610da1610bb8565b8210610de2576040517f08c379a0000000000000000000000000000000000000000000000000000000008152600401610dd990613bc9565b60405180910390fd5b60088281548110610e1c577f4e487b7100000000000000000000000000000000000000000000000000000000600052603260045260246000fd5b90600052602060002001549050919050565b610e36611d7e565b73ffffffffffffffffffffffffffffffffffffffff16610e54611240565b73ffffffffffffffffffffffffffffffffffffffff1614610eaa576040517f08c379a0000000000000000000000000000000000000000000000000000000008152600401610ea190613b29565b60405180910390fd5b60004790508173ffffffffffffffffffffffffffffffffffffffff166108fc829081150290604051600060405180830381858888f19350505050158015610ef5573d6000803e3d6000fd5b505050565b610f02611d7e565b73ffffffffffffffffffffffffffffffffffffffff16610f20611240565b73ffffffffffffffffffffffffffffffffffffffff1614610f76576040517f08c379a0000000000000000000000000000000000000000000000000000000008152600401610f6d90613b29565b60405180910390fd5b80600d8190555050565b610f88611d7e565b73ffffffffffffffffffffffffffffffffffffffff16610fa6611240565b73ffffffffffffffffffffffffffffffffffffffff1614610ffc576040517f08c379a0000000000000000000000000000000000000000000000000000000008152600401610ff390613b29565b60405180910390fd5b80600e9080519060200190611012929190612f7d565b5050565b6000806002600084815260200190815260200160002060009054906101000a900473ffffffffffffffffffffffffffffffffffffffff169050600073ffffffffffffffffffffffffffffffffffffffff168173ffffffffffffffffffffffffffffffffffffffff1614156110bf576040517f08c379a00000000000000000000000000000000000000000000000000000000081526004016110b690613ac9565b60405180910390fd5b80915050919050565b600b5481565b600a60159054906101000a900460ff1681565b600a60149054906101000a900460ff1681565b60008073ffffffffffffffffffffffffffffffffffffffff168273ffffffffffffffffffffffffffffffffffffffff161415611165576040517f08c379a000000000000000000000000000000000000000000000000000000000815260040161115c90613aa9565b60405180910390fd5b600360008373ffffffffffffffffffffffffffffffffffffffff1673ffffffffffffffffffffffffffffffffffffffff168152602001908152602001600020549050919050565b6111b4611d7e565b73ffffffffffffffffffffffffffffffffffffffff166111d2611240565b73ffffffffffffffffffffffffffffffffffffffff1614611228576040517f08c379a000000000000000000000000000000000000000000000000000000000815260040161121f90613b29565b60405180910390fd5b6112326000612179565b565b600c5481565b600d5481565b6000600a60009054906101000a900473ffffffffffffffffffffffffffffffffffffffff16905090565b60606001805461127990613ece565b80601f01602080910402602001604051908101604052809291908181526020018280546112a590613ece565b80156112f25780601f106112c7576101008083540402835291602001916112f2565b820191906000526020600020905b8154815290600101906020018083116112d557829003601f168201915b5050505050905090565b611304611d7e565b73ffffffffffffffffffffffffffffffffffffffff16611322611240565b73ffffffffffffffffffffffffffffffffffffffff1614611378576040517f08c379a000000000000000000000000000000000000000000000000000000000815260040161136f90613b29565b60405180910390fd5b80600c8190555050565b61139461138d611d7e565b838361223f565b5050565b600a816113a3610bb8565b6113ad9190613d03565b11156113ee576040517f08c379a00000000000000000000000000000000000000000000000000000000081526004016113e5906139c9565b60405180910390fd5b600a60149054906101000a900460ff1661143d576040517f08c379a000000000000000000000000000000000000000000000000000000000815260040161143490613929565b60405180910390fd5b600c548161144a336110f4565b6114549190613d03565b1115611495576040517f08c379a000000000000000000000000000000000000000000000000000000000815260040161148c90613a69565b60405180910390fd5b34600b54826114a49190613d8a565b11156114e5576040517f08c379a00000000000000000000000000000000000000000000000000000000081526004016114dc90613be9565b60405180910390fd5b600d5481111561152a576040517f08c379a000000000000000000000000000000000000000000000000000000000815260040161152190613a49565b60405180910390fd5b611533816123ac565b50565b611547611541611d7e565b83611e3f565b611586576040517f08c379a000000000000000000000000000000000000000000000000000000000815260040161157d90613ba9565b60405180910390fd5b611592848484846123f6565b50505050565b601080546115a590613ece565b80601f01602080910402602001604051908101604052809291908181526020018280546115d190613ece565b801561161e5780601f106115f35761010080835404028352916020019161161e565b820191906000526020600020905b81548152906001019060200180831161160157829003601f168201915b505050505081565b606061163182611d12565b611670576040517f08c379a000000000000000000000000000000000000000000000000000000000815260040161166790613b69565b60405180910390fd5b60001515600a60159054906101000a900460ff161515141561171e57600f805461169990613ece565b80601f01602080910402602001604051908101604052809291908181526020018280546116c590613ece565b80156117125780601f106116e757610100808354040283529160200191611712565b820191906000526020600020905b8154815290600101906020018083116116f557829003601f168201915b50505050509050611845565b600060116000848152602001908152602001600020805461173e90613ece565b80601f016020809104026020016040519081016040528092919081815260200182805461176a90613ece565b80156117b75780601f1061178c576101008083540402835291602001916117b7565b820191906000526020600020905b81548152906001019060200180831161179a57829003601f168201915b5050505050905060006117c8612452565b90506000815114156117de578192505050611845565b6000825111156118135780826040516020016117fb929190613830565b60405160208183030381529060405292505050611845565b8061181d856124e4565b601060405160200161183193929190613854565b604051602081830303815290604052925050505b919050565b611852611d7e565b73ffffffffffffffffffffffffffffffffffffffff16611870611240565b73ffffffffffffffffffffffffffffffffffffffff16146118c6576040517f08c379a00000000000000000000000000000000000000000000000000000000081526004016118bd90613b29565b60405180910390fd5b80601090805190602001906118dc929190612f7d565b5050565b6118e8611d7e565b73ffffffffffffffffffffffffffffffffffffffff16611906611240565b73ffffffffffffffffffffffffffffffffffffffff161461195c576040517f08c379a000000000000000000000000000000000000000000000000000000000815260040161195390613b29565b60405180910390fd5b600a60149054906101000a900460ff1615600a60146101000a81548160ff021916908315150217905550565b6000600560008473ffffffffffffffffffffffffffffffffffffffff1673ffffffffffffffffffffffffffffffffffffffff16815260200190815260200160002060008373ffffffffffffffffffffffffffffffffffffffff1673ffffffffffffffffffffffffffffffffffffffff16815260200190815260200160002060009054906101000a900460ff16905092915050565b611a24611d7e565b73ffffffffffffffffffffffffffffffffffffffff16611a42611240565b73ffffffffffffffffffffffffffffffffffffffff1614611a98576040517f08c379a0000000000000000000000000000000000000000000000000000000008152600401611a8f90613b29565b60405180910390fd5b80600f9080519060200190611aae929190612f7d565b5050565b611aba611d7e565b73ffffffffffffffffffffffffffffffffffffffff16611ad8611240565b73ffffffffffffffffffffffffffffffffffffffff1614611b2e576040517f08c379a0000000000000000000000000000000000000000000000000000000008152600401611b2590613b29565b60405180910390fd5b600073ffffffffffffffffffffffffffffffffffffffff168173ffffffffffffffffffffffffffffffffffffffff161415611b9e576040517f08c379a0000000000000000000000000000000000000000000000000000000008152600401611b9590613989565b60405180910390fd5b611ba781612179565b50565b611bb2611d7e565b73ffffffffffffffffffffffffffffffffffffffff16611bd0611240565b73ffffffffffffffffffffffffffffffffffffffff1614611c26576040517f08c379a0000000000000000000000000000000000000000000000000000000008152600401611c1d90613b29565b60405180910390fd5b80600b8190555050565b60007f80ac58cd000000000000000000000000000000000000000000000000000000007bffffffffffffffffffffffffffffffffffffffffffffffffffffffff1916827bffffffffffffffffffffffffffffffffffffffffffffffffffffffff19161480611cfb57507f5b5e139f000000000000000000000000000000000000000000000000000000007bffffffffffffffffffffffffffffffffffffffffffffffffffffffff1916827bffffffffffffffffffffffffffffffffffffffffffffffffffffffff1916145b80611d0b5750611d0a82612691565b5b9050919050565b60008073ffffffffffffffffffffffffffffffffffffffff166002600084815260200190815260200160002060009054906101000a900473ffffffffffffffffffffffffffffffffffffffff1673ffffffffffffffffffffffffffffffffffffffff1614159050919050565b600033905090565b816004600083815260200190815260200160002060006101000a81548173ffffffffffffffffffffffffffffffffffffffff021916908373ffffffffffffffffffffffffffffffffffffffff160217905550808273ffffffffffffffffffffffffffffffffffffffff16611df983611016565b73ffffffffffffffffffffffffffffffffffffffff167f8c5be1e5ebec7d5bd14f71427d1e84f3dd0314c0f7b2291e5b200ac8c7c3b92560405160405180910390a45050565b6000611e4a82611d12565b611e89576040517f08c379a0000000000000000000000000000000000000000000000000000000008152600401611e8090613a29565b60405180910390fd5b6000611e9483611016565b90508073ffffffffffffffffffffffffffffffffffffffff168473ffffffffffffffffffffffffffffffffffffffff161480611f0357508373ffffffffffffffffffffffffffffffffffffffff16611eeb8461098d565b73ffffffffffffffffffffffffffffffffffffffff16145b80611f145750611f138185611988565b5b91505092915050565b8273ffffffffffffffffffffffffffffffffffffffff16611f3d82611016565b73ffffffffffffffffffffffffffffffffffffffff1614611f93576040517f08c379a0000000000000000000000000000000000000000000000000000000008152600401611f8a90613b49565b60405180910390fd5b600073ffffffffffffffffffffffffffffffffffffffff168273ffffffffffffffffffffffffffffffffffffffff161415612003576040517f08c379a0000000000000000000000000000000000000000000000000000000008152600401611ffa906139e9565b60405180910390fd5b61200e8383836126fb565b612019600082611d86565b6001600360008573ffffffffffffffffffffffffffffffffffffffff1673ffffffffffffffffffffffffffffffffffffffff16815260200190815260200160002060008282546120699190613de4565b925050819055506001600360008473ffffffffffffffffffffffffffffffffffffffff1673ffffffffffffffffffffffffffffffffffffffff16815260200190815260200160002060008282546120c09190613d03565b92505081905550816002600083815260200190815260200160002060006101000a81548173ffffffffffffffffffffffffffffffffffffffff021916908373ffffffffffffffffffffffffffffffffffffffff160217905550808273ffffffffffffffffffffffffffffffffffffffff168473ffffffffffffffffffffffffffffffffffffffff167fddf252ad1be2c89b69c2b068fc378daa952ba7f163c4a11628f55a4df523b3ef60405160405180910390a4505050565b6000600a60009054906101000a900473ffffffffffffffffffffffffffffffffffffffff16905081600a60006101000a81548173ffffffffffffffffffffffffffffffffffffffff021916908373ffffffffffffffffffffffffffffffffffffffff1602179055508173ffffffffffffffffffffffffffffffffffffffff168173ffffffffffffffffffffffffffffffffffffffff167f8be0079c531659141344cd1fd0a4f28419497f9722a3daafe3b4186f6b6457e060405160405180910390a35050565b8173ffffffffffffffffffffffffffffffffffffffff168373ffffffffffffffffffffffffffffffffffffffff1614156122ae576040517f08c379a00000000000000000000000000000000000000000000000000000000081526004016122a590613a09565b60405180910390fd5b80600560008573ffffffffffffffffffffffffffffffffffffffff1673ffffffffffffffffffffffffffffffffffffffff16815260200190815260200160002060008473ffffffffffffffffffffffffffffffffffffffff1673ffffffffffffffffffffffffffffffffffffffff16815260200190815260200160002060006101000a81548160ff0219169083151502179055508173ffffffffffffffffffffffffffffffffffffffff168373ffffffffffffffffffffffffffffffffffffffff167f17307eab39ab6107e8899845ad3d59bd9653f200f220920489ca2b5937696c318360405161239f91906138ec565b60405180910390a3505050565b60005b818110156123f25760006123c1610bb8565b9050600a6123cd610bb8565b10156123de576123dd338261280f565b5b5080806123ea90613f31565b9150506123af565b5050565b612401848484611f1d565b61240d8484848461282d565b61244c576040517f08c379a000000000000000000000000000000000000000000000000000000000815260040161244390613969565b60405180910390fd5b50505050565b6060600e805461246190613ece565b80601f016020809104026020016040519081016040528092919081815260200182805461248d90613ece565b80156124da5780601f106124af576101008083540402835291602001916124da565b820191906000526020600020905b8154815290600101906020018083116124bd57829003601f168201915b5050505050905090565b6060600082141561252c576040518060400160405280600181526020017f3000000000000000000000000000000000000000000000000000000000000000815250905061268c565b600082905060005b6000821461255e57808061254790613f31565b915050600a826125579190613d59565b9150612534565b60008167ffffffffffffffff8111156125a0577f4e487b7100000000000000000000000000000000000000000000000000000000600052604160045260246000fd5b6040519080825280601f01601f1916602001820160405280156125d25781602001600182028036833780820191505090505b5090505b60008514612685576001826125eb9190613de4565b9150600a856125fa9190613f7a565b60306126069190613d03565b60f81b818381518110612642577f4e487b7100000000000000000000000000000000000000000000000000000000600052603260045260246000fd5b60200101907effffffffffffffffffffffffffffffffffffffffffffffffffffffffffffff1916908160001a905350600a8561267e9190613d59565b94506125d6565b8093505050505b919050565b60007f01ffc9a7000000000000000000000000000000000000000000000000000000007bffffffffffffffffffffffffffffffffffffffffffffffffffffffff1916827bffffffffffffffffffffffffffffffffffffffffffffffffffffffff1916149050919050565b6127068383836129c4565b600073ffffffffffffffffffffffffffffffffffffffff168373ffffffffffffffffffffffffffffffffffffffff16141561274957612744816129c9565b612788565b8173ffffffffffffffffffffffffffffffffffffffff168373ffffffffffffffffffffffffffffffffffffffff1614612787576127868382612a12565b5b5b600073ffffffffffffffffffffffffffffffffffffffff168273ffffffffffffffffffffffffffffffffffffffff1614156127cb576127c681612b7f565b61280a565b8273ffffffffffffffffffffffffffffffffffffffff168273ffffffffffffffffffffffffffffffffffffffff1614612809576128088282612cc2565b5b5b505050565b612829828260405180602001604052806000815250612d41565b5050565b600061284e8473ffffffffffffffffffffffffffffffffffffffff16612d9c565b156129b7578373ffffffffffffffffffffffffffffffffffffffff1663150b7a02612877611d7e565b8786866040518563ffffffff1660e01b815260040161289994939291906138a0565b602060405180830381600087803b1580156128b357600080fd5b505af19250505080156128e457506040513d601f19601f820116820180604052508101906128e19190613329565b60015b612967573d8060008114612914576040519150601f19603f3d011682016040523d82523d6000602084013e612919565b606091505b5060008151141561295f576040517f08c379a000000000000000000000000000000000000000000000000000000000815260040161295690613969565b60405180910390fd5b805181602001fd5b63150b7a0260e01b7bffffffffffffffffffffffffffffffffffffffffffffffffffffffff1916817bffffffffffffffffffffffffffffffffffffffffffffffffffffffff1916149150506129bc565b600190505b949350505050565b505050565b6008805490506009600083815260200190815260200160002081905550600881908060018154018082558091505060019003906000526020600020016000909190919091505550565b60006001612a1f846110f4565b612a299190613de4565b9050600060076000848152602001908152602001600020549050818114612b0e576000600660008673ffffffffffffffffffffffffffffffffffffffff1673ffffffffffffffffffffffffffffffffffffffff168152602001908152602001600020600084815260200190815260200160002054905080600660008773ffffffffffffffffffffffffffffffffffffffff1673ffffffffffffffffffffffffffffffffffffffff168152602001908152602001600020600084815260200190815260200160002081905550816007600083815260200190815260200160002081905550505b6007600084815260200190815260200160002060009055600660008573ffffffffffffffffffffffffffffffffffffffff1673ffffffffffffffffffffffffffffffffffffffff16815260200190815260200160002060008381526020019081526020016000206000905550505050565b60006001600880549050612b939190613de4565b9050600060096000848152602001908152602001600020549050600060088381548110612be9577f4e487b7100000000000000000000000000000000000000000000000000000000600052603260045260246000fd5b906000526020600020015490508060088381548110612c31577f4e487b7100000000000000000000000000000000000000000000000000000000600052603260045260246000fd5b906000526020600020018190555081600960008381526020019081526020016000208190555060096000858152602001908152602001600020600090556008805480612ca6577f4e487b7100000000000000000000000000000000000000000000000000000000600052603160045260246000fd5b6001900381819060005260206000200160009055905550505050565b6000612ccd836110f4565b905081600660008573ffffffffffffffffffffffffffffffffffffffff1673ffffffffffffffffffffffffffffffffffffffff168152602001908152602001600020600083815260200190815260200160002081905550806007600084815260200190815260200160002081905550505050565b612d4b8383612daf565b612d58600084848461282d565b612d97576040517f08c379a0000000000000000000000000000000000000000000000000000000008152600401612d8e90613969565b60405180910390fd5b505050565b600080823b905060008111915050919050565b600073ffffffffffffffffffffffffffffffffffffffff168273ffffffffffffffffffffffffffffffffffffffff161415612e1f576040517f08c379a0000000000000000000000000000000000000000000000000000000008152600401612e1690613ae9565b60405180910390fd5b612e2881611d12565b15612e68576040517f08c379a0000000000000000000000000000000000000000000000000000000008152600401612e5f906139a9565b60405180910390fd5b612e74600083836126fb565b6001600360008473ffffffffffffffffffffffffffffffffffffffff1673ffffffffffffffffffffffffffffffffffffffff1681526020019081526020016000206000828254612ec49190613d03565b92505081905550816002600083815260200190815260200160002060006101000a81548173ffffffffffffffffffffffffffffffffffffffff021916908373ffffffffffffffffffffffffffffffffffffffff160217905550808273ffffffffffffffffffffffffffffffffffffffff16600073ffffffffffffffffffffffffffffffffffffffff167fddf252ad1be2c89b69c2b068fc378daa952ba7f163c4a11628f55a4df523b3ef60405160405180910390a45050565b828054612f8990613ece565b90600052602060002090601f016020900481019282612fab5760008555612ff2565b82601f10612fc457805160ff1916838001178555612ff2565b82800160010185558215612ff2579182015b82811115612ff1578251825591602001919060010190612fd6565b5b509050612fff9190613003565b5090565b5b8082111561301c576000816000905550600101613004565b5090565b600061303361302e84613c49565b613c24565b90508281526020810184848401111561304b57600080fd5b613056848285613e8c565b509392505050565b600061307161306c84613c7a565b613c24565b90508281526020810184848401111561308957600080fd5b613094848285613e8c565b509392505050565b6000813590506130ab81614661565b92915050565b6000813590506130c081614678565b92915050565b6000813590506130d58161468f565b92915050565b6000815190506130ea8161468f565b92915050565b600082601f83011261310157600080fd5b8135613111848260208601613020565b91505092915050565b600082601f83011261312b57600080fd5b813561313b84826020860161305e565b91505092915050565b600081359050613153816146a6565b92915050565b60006020828403121561316b57600080fd5b60006131798482850161309c565b91505092915050565b6000806040838503121561319557600080fd5b60006131a38582860161309c565b92505060206131b48582860161309c565b9150509250929050565b6000806000606084860312156131d357600080fd5b60006131e18682870161309c565b93505060206131f28682870161309c565b925050604061320386828701613144565b9150509250925092565b6000806000806080858703121561322357600080fd5b60006132318782880161309c565b94505060206132428782880161309c565b935050604061325387828801613144565b925050606085013567ffffffffffffffff81111561327057600080fd5b61327c878288016130f0565b91505092959194509250565b6000806040838503121561329b57600080fd5b60006132a98582860161309c565b92505060206132ba858286016130b1565b9150509250929050565b600080604083850312156132d757600080fd5b60006132e58582860161309c565b92505060206132f685828601613144565b9150509250929050565b60006020828403121561331257600080fd5b6000613320848285016130c6565b91505092915050565b60006020828403121561333b57600080fd5b6000613349848285016130db565b91505092915050565b60006020828403121561336457600080fd5b600082013567ffffffffffffffff81111561337e57600080fd5b61338a8482850161311a565b91505092915050565b6000602082840312156133a557600080fd5b60006133b384828501613144565b91505092915050565b6133c581613e18565b82525050565b6133d481613e2a565b82525050565b60006133e582613cc0565b6133ef8185613cd6565b93506133ff818560208601613e9b565b61340881614067565b840191505092915050565b600061341e82613ccb565b6134288185613ce7565b9350613438818560208601613e9b565b61344181614067565b840191505092915050565b600061345782613ccb565b6134618185613cf8565b9350613471818560208601613e9b565b80840191505092915050565b6000815461348a81613ece565b6134948186613cf8565b945060018216600081146134af57600181146134c0576134f3565b60ff198316865281860193506134f3565b6134c985613cab565b60005b838110156134eb578154818901526001820191506020810190506134cc565b838801955050505b50505092915050565b6000613509602583613ce7565b915061351482614078565b604082019050919050565b600061352c602b83613ce7565b9150613537826140c7565b604082019050919050565b600061354f603283613ce7565b915061355a82614116565b604082019050919050565b6000613572602683613ce7565b915061357d82614165565b604082019050919050565b6000613595601c83613ce7565b91506135a0826141b4565b602082019050919050565b60006135b8601c83613ce7565b91506135c3826141dd565b602082019050919050565b60006135db602483613ce7565b91506135e682614206565b604082019050919050565b60006135fe601983613ce7565b915061360982614255565b602082019050919050565b6000613621602c83613ce7565b915061362c8261427e565b604082019050919050565b6000613644602083613ce7565b915061364f826142cd565b602082019050919050565b6000613667601d83613ce7565b9150613672826142f6565b602082019050919050565b600061368a603883613ce7565b91506136958261431f565b604082019050919050565b60006136ad602a83613ce7565b91506136b88261436e565b604082019050919050565b60006136d0602983613ce7565b91506136db826143bd565b604082019050919050565b60006136f3602083613ce7565b91506136fe8261440c565b602082019050919050565b6000613716602c83613ce7565b915061372182614435565b604082019050919050565b6000613739602083613ce7565b915061374482614484565b602082019050919050565b600061375c602983613ce7565b9150613767826144ad565b604082019050919050565b600061377f602f83613ce7565b915061378a826144fc565b604082019050919050565b60006137a2602183613ce7565b91506137ad8261454b565b604082019050919050565b60006137c5603183613ce7565b91506137d08261459a565b604082019050919050565b60006137e8602c83613ce7565b91506137f3826145e9565b604082019050919050565b600061380b601583613ce7565b915061381682614638565b602082019050919050565b61382a81613e82565b82525050565b600061383c828561344c565b9150613848828461344c565b91508190509392505050565b6000613860828661344c565b915061386c828561344c565b9150613878828461347d565b9150819050949350505050565b600060208201905061389a60008301846133bc565b92915050565b60006080820190506138b560008301876133bc565b6138c260208301866133bc565b6138cf6040830185613821565b81810360608301526138e181846133da565b905095945050505050565b600060208201905061390160008301846133cb565b92915050565b600060208201905081810360008301526139218184613413565b905092915050565b60006020820190508181036000830152613942816134fc565b9050919050565b600060208201905081810360008301526139628161351f565b9050919050565b6000602082019050818103600083015261398281613542565b9050919050565b600060208201905081810360008301526139a281613565565b9050919050565b600060208201905081810360008301526139c281613588565b9050919050565b600060208201905081810360008301526139e2816135ab565b9050919050565b60006020820190508181036000830152613a02816135ce565b9050919050565b60006020820190508181036000830152613a22816135f1565b9050919050565b60006020820190508181036000830152613a4281613614565b9050919050565b60006020820190508181036000830152613a6281613637565b9050919050565b60006020820190508181036000830152613a828161365a565b9050919050565b60006020820190508181036000830152613aa28161367d565b9050919050565b60006020820190508181036000830152613ac2816136a0565b9050919050565b60006020820190508181036000830152613ae2816136c3565b9050919050565b60006020820190508181036000830152613b02816136e6565b9050919050565b60006020820190508181036000830152613b2281613709565b9050919050565b60006020820190508181036000830152613b428161372c565b9050919050565b60006020820190508181036000830152613b628161374f565b9050919050565b60006020820190508181036000830152613b8281613772565b9050919050565b60006020820190508181036000830152613ba281613795565b9050919050565b60006020820190508181036000830152613bc2816137b8565b9050919050565b60006020820190508181036000830152613be2816137db565b9050919050565b60006020820190508181036000830152613c02816137fe565b9050919050565b6000602082019050613c1e6000830184613821565b92915050565b6000613c2e613c3f565b9050613c3a8282613f00565b919050565b6000604051905090565b600067ffffffffffffffff821115613c6457613c63614038565b5b613c6d82614067565b9050602081019050919050565b600067ffffffffffffffff821115613c9557613c94614038565b5b613c9e82614067565b9050602081019050919050565b60008190508160005260206000209050919050565b600081519050919050565b600081519050919050565b600082825260208201905092915050565b600082825260208201905092915050565b600081905092915050565b6000613d0e82613e82565b9150613d1983613e82565b9250827fffffffffffffffffffffffffffffffffffffffffffffffffffffffffffffffff03821115613d4e57613d4d613fab565b5b828201905092915050565b6000613d6482613e82565b9150613d6f83613e82565b925082613d7f57613d7e613fda565b5b828204905092915050565b6000613d9582613e82565b9150613da083613e82565b9250817fffffffffffffffffffffffffffffffffffffffffffffffffffffffffffffffff0483118215151615613dd957613dd8613fab565b5b828202905092915050565b6000613def82613e82565b9150613dfa83613e82565b925082821015613e0d57613e0c613fab565b5b828203905092915050565b6000613e2382613e62565b9050919050565b60008115159050919050565b60007fffffffff0000000000000000000000000000000000000000000000000000000082169050919050565b600073ffffffffffffffffffffffffffffffffffffffff82169050919050565b6000819050919050565b82818337600083830152505050565b60005b83811015613eb9578082015181840152602081019050613e9e565b83811115613ec8576000848401525b50505050565b60006002820490506001821680613ee657607f821691505b60208210811415613efa57613ef9614009565b5b50919050565b613f0982614067565b810181811067ffffffffffffffff82111715613f2857613f27614038565b5b80604052505050565b6000613f3c82613e82565b91507fffffffffffffffffffffffffffffffffffffffffffffffffffffffffffffffff821415613f6f57613f6e613fab565b5b600182019050919050565b6000613f8582613e82565b9150613f9083613e82565b925082613fa057613f9f613fda565b5b828206905092915050565b7f4e487b7100000000000000000000000000000000000000000000000000000000600052601160045260246000fd5b7f4e487b7100000000000000000000000000000000000000000000000000000000600052601260045260246000fd5b7f4e487b7100000000000000000000000000000000000000000000000000000000600052602260045260246000fd5b7f4e487b7100000000000000000000000000000000000000000000000000000000600052604160045260246000fd5b6000601f19601f8301169050919050565b7f53616c65206d7573742062652061637469766520746f206d696e74204a696c6c60008201527f4d65746173000000000000000000000000000000000000000000000000000000602082015250565b7f455243373231456e756d657261626c653a206f776e657220696e646578206f7560008201527f74206f6620626f756e6473000000000000000000000000000000000000000000602082015250565b7f4552433732313a207472616e7366657220746f206e6f6e20455243373231526560008201527f63656976657220696d706c656d656e7465720000000000000000000000000000602082015250565b7f4f776e61626c653a206e6577206f776e657220697320746865207a65726f206160008201527f6464726573730000000000000000000000000000000000000000000000000000602082015250565b7f4552433732313a20746f6b656e20616c7265616479206d696e74656400000000600082015250565b7f53616c6520776f756c6420657863656564206d617820737570706c7900000000600082015250565b7f4552433732313a207472616e7366657220746f20746865207a65726f2061646460008201527f7265737300000000000000000000000000000000000000000000000000000000602082015250565b7f4552433732313a20617070726f766520746f2063616c6c657200000000000000600082015250565b7f4552433732313a206f70657261746f7220717565727920666f72206e6f6e657860008201527f697374656e7420746f6b656e0000000000000000000000000000000000000000602082015250565b7f43616e206f6e6c79206d696e74203120746f6b656e7320617420612074696d65600082015250565b7f53616c6520776f756c6420657863656564206d61782062616c616e6365000000600082015250565b7f4552433732313a20617070726f76652063616c6c6572206973206e6f74206f7760008201527f6e6572206e6f7220617070726f76656420666f7220616c6c0000000000000000602082015250565b7f4552433732313a2062616c616e636520717565727920666f7220746865207a6560008201527f726f206164647265737300000000000000000000000000000000000000000000602082015250565b7f4552433732313a206f776e657220717565727920666f72206e6f6e657869737460008201527f656e7420746f6b656e0000000000000000000000000000000000000000000000602082015250565b7f4552433732313a206d696e7420746f20746865207a65726f2061646472657373600082015250565b7f4552433732313a20617070726f76656420717565727920666f72206e6f6e657860008201527f697374656e7420746f6b656e0000000000000000000000000000000000000000602082015250565b7f4f776e61626c653a2063616c6c6572206973206e6f7420746865206f776e6572600082015250565b7f4552433732313a207472616e73666572206f6620746f6b656e2074686174206960008201527f73206e6f74206f776e0000000000000000000000000000000000000000000000602082015250565b7f4552433732314d657461646174613a2055524920717565727920666f72206e6f60008201527f6e6578697374656e7420746f6b656e0000000000000000000000000000000000602082015250565b7f4552433732313a20617070726f76616c20746f2063757272656e74206f776e6560008201527f7200000000000000000000000000000000000000000000000000000000000000602082015250565b7f4552433732313a207472616e736665722063616c6c6572206973206e6f74206f60008201527f776e6572206e6f7220617070726f766564000000000000000000000000000000602082015250565b7f455243373231456e756d657261626c653a20676c6f62616c20696e646578206f60008201527f7574206f6620626f756e64730000000000000000000000000000000000000000602082015250565b7f4e6f7420656e6f7567682065746865722073656e740000000000000000000000600082015250565b61466a81613e18565b811461467557600080fd5b50565b61468181613e2a565b811461468c57600080fd5b50565b61469881613e36565b81146146a357600080fd5b50565b6146af81613e82565b81146146ba57600080fd5b5056fea26469706673582212205f94fc2cffcfad9ff08250c0948c3c721139fd90c838dda09b22358d1467f60064736f6c63430008040033",
  "linkReferences": {},
  "deployedLinkReferences": {}
}