{
  "_format": "hh-sol-artifact-1",
  "contractName": "Market",
  "sourceName": "contracts/example/Market.sol",
  "abi": [
    {
      "anonymous": false,
      "inputs": [
        {
          "indexed": true,
          "internalType": "uint256",
          "name": "itemId",
          "type": "uint256"
        },
        {
          "indexed": true,
          "internalType": "address",
          "name": "nftContract",
          "type": "address"
        },
        {
          "indexed": true,
          "internalType": "uint256",
          "name": "tokenId",
          "type": "uint256"
        },
        {
          "indexed": false,
          "internalType": "address",
          "name": "lender",
          "type": "address"
        },
        {
          "indexed": false,
          "internalType": "address",
          "name": "renter",
          "type": "address"
        },
        {
          "indexed": false,
          "internalType": "uint256",
          "name": "price",
          "type": "uint256"
        },
        {
          "indexed": false,
          "internalType": "uint256",
          "name": "deposit",
          "type": "uint256"
        },
        {
          "indexed": false,
          "internalType": "uint256",
          "name": "validTime",
          "type": "uint256"
        },
        {
          "indexed": false,
          "internalType": "uint256",
          "name": "rentStart",
          "type": "uint256"
        },
        {
          "indexed": false,
          "internalType": "uint256",
          "name": "rentEnd",
          "type": "uint256"
        }
      ],
      "name": "MarketItemCreated",
      "type": "event"
    },
    {
      "inputs": [
        {
          "internalType": "address",
          "name": "nftContract",
          "type": "address"
        },
        {
          "internalType": "uint256",
          "name": "tokenId",
          "type": "uint256"
        },
        {
          "internalType": "uint256",
          "name": "price",
          "type": "uint256"
        },
        {
          "internalType": "uint256",
          "name": "deposit",
          "type": "uint256"
        },
        {
          "internalType": "uint256",
          "name": "validTime",
          "type": "uint256"
        }
      ],
      "name": "createMarketItem",
      "outputs": [],
      "stateMutability": "nonpayable",
      "type": "function"
    },
    {
      "inputs": [],
      "name": "fetchMarketItems",
      "outputs": [
        {
          "components": [
            {
              "internalType": "uint256",
              "name": "itemId",
              "type": "uint256"
            },
            {
              "internalType": "address",
              "name": "nftContract",
              "type": "address"
            },
            {
              "internalType": "uint256",
              "name": "tokenId",
              "type": "uint256"
            },
            {
              "internalType": "address payable",
              "name": "lender",
              "type": "address"
            },
            {
              "internalType": "address payable",
              "name": "renter",
              "type": "address"
            },
            {
              "internalType": "uint256",
              "name": "price",
              "type": "uint256"
            },
            {
              "internalType": "uint256",
              "name": "deposit",
              "type": "uint256"
            },
            {
              "internalType": "uint256",
              "name": "validTime",
              "type": "uint256"
            },
            {
              "internalType": "uint256",
              "name": "rentStart",
              "type": "uint256"
            },
            {
              "internalType": "uint256",
              "name": "rentEnd",
              "type": "uint256"
            }
          ],
          "internalType": "struct Market.MarketItem[]",
          "name": "",
          "type": "tuple[]"
        }
      ],
      "stateMutability": "view",
      "type": "function"
    },
    {
      "inputs": [],
      "name": "fetchMyMarketItems",
      "outputs": [
        {
          "internalType": "string",
          "name": "",
          "type": "string"
        }
      ],
      "stateMutability": "pure",
      "type": "function"
    },
    {
      "inputs": [],
      "name": "fetchMyRentingItems",
      "outputs": [
        {
          "internalType": "string",
          "name": "",
          "type": "string"
        }
      ],
      "stateMutability": "pure",
      "type": "function"
    },
    {
      "inputs": [
        {
          "internalType": "uint256",
          "name": "itemId",
          "type": "uint256"
        }
      ],
      "name": "getDeposit",
      "outputs": [],
      "stateMutability": "payable",
      "type": "function"
    },
    {
      "inputs": [
        {
          "internalType": "uint256",
          "name": "marketItemId",
          "type": "uint256"
        }
      ],
      "name": "getMarketItem",
      "outputs": [
        {
          "components": [
            {
              "internalType": "uint256",
              "name": "itemId",
              "type": "uint256"
            },
            {
              "internalType": "address",
              "name": "nftContract",
              "type": "address"
            },
            {
              "internalType": "uint256",
              "name": "tokenId",
              "type": "uint256"
            },
            {
              "internalType": "address payable",
              "name": "lender",
              "type": "address"
            },
            {
              "internalType": "address payable",
              "name": "renter",
              "type": "address"
            },
            {
              "internalType": "uint256",
              "name": "price",
              "type": "uint256"
            },
            {
              "internalType": "uint256",
              "name": "deposit",
              "type": "uint256"
            },
            {
              "internalType": "uint256",
              "name": "validTime",
              "type": "uint256"
            },
            {
              "internalType": "uint256",
              "name": "rentStart",
              "type": "uint256"
            },
            {
              "internalType": "uint256",
              "name": "rentEnd",
              "type": "uint256"
            }
          ],
          "internalType": "struct Market.MarketItem",
          "name": "",
          "type": "tuple"
        }
      ],
      "stateMutability": "view",
      "type": "function"
    },
    {
      "inputs": [
        {
          "internalType": "address",
          "name": "nftContract",
          "type": "address"
        },
        {
          "internalType": "uint256",
          "name": "itemId",
          "type": "uint256"
        }
      ],
      "name": "rentMarketItem",
      "outputs": [],
      "stateMutability": "payable",
      "type": "function"
    },
    {
      "inputs": [
        {
          "internalType": "uint256",
          "name": "itemId",
          "type": "uint256"
        }
      ],
      "name": "returnMarketItem",
      "outputs": [],
      "stateMutability": "payable",
      "type": "function"
    }
  ],
  "bytecode": "0x608060405234801561001057600080fd5b506001600081905550611869806100286000396000f3fe60806040526004361061007b5760003560e01c8063b637dbf31161004e578063b637dbf31461010c578063c7be7a4914610137578063dd3385b714610174578063fbfce68b1461019f5761007b565b80630f08efe0146100805780638c52e548146100ab57806392083b91146100c75780639f9fb968146100f0575b600080fd5b34801561008c57600080fd5b506100956101bb565b6040516100a29190611460565b60405180910390f35b6100c560048036038101906100c09190610fb0565b6104df565b005b3480156100d357600080fd5b506100ee60048036038101906100e99190610fec565b610741565b005b61010a60048036038101906101059190611063565b610a85565b005b34801561011857600080fd5b50610121610b95565b60405161012e9190611482565b60405180910390f35b34801561014357600080fd5b5061015e60048036038101906101599190611063565b610bd2565b60405161016b9190611524565b60405180910390f35b34801561018057600080fd5b50610189610d48565b6040516101969190611482565b60405180910390f35b6101b960048036038101906101b49190611063565b610d85565b005b606060006101c96001610ecd565b905060006101d76002610ecd565b6101e16001610ecd565b6101eb91906115eb565b90506000808267ffffffffffffffff811115610230577f4e487b7100000000000000000000000000000000000000000000000000000000600052604160045260246000fd5b60405190808252806020026020018201604052801561026957816020015b610256610ef1565b81526020019060019003908161024e5790505b50905060005b848110156104d457600073ffffffffffffffffffffffffffffffffffffffff16600460006001846102a09190611595565b815260200190815260200160002060040160009054906101000a900473ffffffffffffffffffffffffffffffffffffffff1673ffffffffffffffffffffffffffffffffffffffff1614156104c15760006001826102fd9190611595565b905060006004600083815260200190815260200160002090508060405180610140016040529081600082015481526020016001820160009054906101000a900473ffffffffffffffffffffffffffffffffffffffff1673ffffffffffffffffffffffffffffffffffffffff1673ffffffffffffffffffffffffffffffffffffffff168152602001600282015481526020016003820160009054906101000a900473ffffffffffffffffffffffffffffffffffffffff1673ffffffffffffffffffffffffffffffffffffffff1673ffffffffffffffffffffffffffffffffffffffff1681526020016004820160009054906101000a900473ffffffffffffffffffffffffffffffffffffffff1673ffffffffffffffffffffffffffffffffffffffff1673ffffffffffffffffffffffffffffffffffffffff168152602001600582015481526020016006820154815260200160078201548152602001600882015481526020016009820154815250508486815181106104a4577f4e487b7100000000000000000000000000000000000000000000000000000000600052603260045260246000fd5b60200260200101819052506001856104bc9190611595565b945050505b80806104cc906116b2565b91505061026f565b508094505050505090565b60026000541415610525576040517f08c379a000000000000000000000000000000000000000000000000000000000815260040161051c906114e4565b60405180910390fd5b6002600081905550600060046000838152602001908152602001600020600501549050600060046000848152602001908152602001600020600601549050600060046000858152602001908152602001600020600201549050818361058a9190611595565b3410156105cc576040517f08c379a00000000000000000000000000000000000000000000000000000000081526004016105c3906114a4565b60405180910390fd5b6004600085815260200190815260200160002060030160009054906101000a900473ffffffffffffffffffffffffffffffffffffffff1673ffffffffffffffffffffffffffffffffffffffff166108fc849081150290604051600060405180830381858888f19350505050158015610648573d6000803e3d6000fd5b508473ffffffffffffffffffffffffffffffffffffffff166323b872dd3033846040518463ffffffff1660e01b8152600401610686939291906113ba565b600060405180830381600087803b1580156106a057600080fd5b505af11580156106b4573d6000803e3d6000fd5b50505050336004600086815260200190815260200160002060040160006101000a81548173ffffffffffffffffffffffffffffffffffffffff021916908373ffffffffffffffffffffffffffffffffffffffff1602179055504260046000868152602001908152602001600020600801819055506107326002610edb565b50505060016000819055505050565b60026000541415610787576040517f08c379a000000000000000000000000000000000000000000000000000000000815260040161077e906114e4565b60405180910390fd5b6002600081905550600083116107d2576040517f08c379a00000000000000000000000000000000000000000000000000000000081526004016107c990611504565b60405180910390fd5b6107dc6001610edb565b60006107e86001610ecd565b90506040518061014001604052808281526020018773ffffffffffffffffffffffffffffffffffffffff1681526020018681526020013373ffffffffffffffffffffffffffffffffffffffff168152602001600073ffffffffffffffffffffffffffffffffffffffff168152602001858152602001848152602001838152602001600081526020016000815250600460008381526020019081526020016000206000820151816000015560208201518160010160006101000a81548173ffffffffffffffffffffffffffffffffffffffff021916908373ffffffffffffffffffffffffffffffffffffffff1602179055506040820151816002015560608201518160030160006101000a81548173ffffffffffffffffffffffffffffffffffffffff021916908373ffffffffffffffffffffffffffffffffffffffff16021790555060808201518160040160006101000a81548173ffffffffffffffffffffffffffffffffffffffff021916908373ffffffffffffffffffffffffffffffffffffffff16021790555060a0820151816005015560c0820151816006015560e08201518160070155610100820151816008015561012082015181600901559050508573ffffffffffffffffffffffffffffffffffffffff166323b872dd3330886040518463ffffffff1660e01b81526004016109e5939291906113ba565b600060405180830381600087803b1580156109ff57600080fd5b505af1158015610a13573d6000803e3d6000fd5b50505050848673ffffffffffffffffffffffffffffffffffffffff16827f0b0e9ee8c8c280f8a8a2ed45a88db9d784d79db22ca62d1484680bb8d0dfabe6336000898989600080604051610a6d97969594939291906113f1565b60405180910390a45060016000819055505050505050565b60006004600083815260200190815260200160002060060154905060006004600084815260200190815260200160002060030160009054906101000a900473ffffffffffffffffffffffffffffffffffffffff1690508073ffffffffffffffffffffffffffffffffffffffff163373ffffffffffffffffffffffffffffffffffffffff1614610b49576040517f08c379a0000000000000000000000000000000000000000000000000000000008152600401610b40906114c4565b60405180910390fd5b3373ffffffffffffffffffffffffffffffffffffffff166108fc839081150290604051600060405180830381858888f19350505050158015610b8f573d6000803e3d6000fd5b50505050565b60606040518060400160405280600881526020017f7570636f6d696e67000000000000000000000000000000000000000000000000815250905090565b610bda610ef1565b6004600083815260200190815260200160002060405180610140016040529081600082015481526020016001820160009054906101000a900473ffffffffffffffffffffffffffffffffffffffff1673ffffffffffffffffffffffffffffffffffffffff1673ffffffffffffffffffffffffffffffffffffffff168152602001600282015481526020016003820160009054906101000a900473ffffffffffffffffffffffffffffffffffffffff1673ffffffffffffffffffffffffffffffffffffffff1673ffffffffffffffffffffffffffffffffffffffff1681526020016004820160009054906101000a900473ffffffffffffffffffffffffffffffffffffffff1673ffffffffffffffffffffffffffffffffffffffff1673ffffffffffffffffffffffffffffffffffffffff168152602001600582015481526020016006820154815260200160078201548152602001600882015481526020016009820154815250509050919050565b60606040518060400160405280600881526020017f7570636f6d696e67000000000000000000000000000000000000000000000000815250905090565b60006004600083815260200190815260200160002060060154905060006004600084815260200190815260200160002060020154905060006004600085815260200190815260200160002060010160009054906101000a900473ffffffffffffffffffffffffffffffffffffffff1690504260046000868152602001908152602001600020600901819055503373ffffffffffffffffffffffffffffffffffffffff166108fc849081150290604051600060405180830381858888f19350505050158015610e57573d6000803e3d6000fd5b508073ffffffffffffffffffffffffffffffffffffffff166323b872dd3330856040518463ffffffff1660e01b8152600401610e95939291906113ba565b600060405180830381600087803b158015610eaf57600080fd5b505af1158015610ec3573d6000803e3d6000fd5b5050505050505050565b600081600001549050919050565b6001816000016000828254019250508190555050565b60405180610140016040528060008152602001600073ffffffffffffffffffffffffffffffffffffffff16815260200160008152602001600073ffffffffffffffffffffffffffffffffffffffff168152602001600073ffffffffffffffffffffffffffffffffffffffff16815260200160008152602001600081526020016000815260200160008152602001600081525090565b600081359050610f9581611805565b92915050565b600081359050610faa8161181c565b92915050565b60008060408385031215610fc357600080fd5b6000610fd185828601610f86565b9250506020610fe285828601610f9b565b9150509250929050565b600080600080600060a0868803121561100457600080fd5b600061101288828901610f86565b955050602061102388828901610f9b565b945050604061103488828901610f9b565b935050606061104588828901610f9b565b925050608061105688828901610f9b565b9150509295509295909350565b60006020828403121561107557600080fd5b600061108384828501610f9b565b91505092915050565b60006110988383611204565b6101408301905092915050565b6110ae81611631565b82525050565b6110bd8161161f565b82525050565b6110cc8161161f565b82525050565b60006110dd82611550565b6110e78185611573565b93506110f283611540565b8060005b8381101561112357815161110a888261108c565b975061111583611566565b9250506001810190506110f6565b5085935050505092915050565b6111398161166d565b82525050565b600061114a8261155b565b6111548185611584565b935061116481856020860161167f565b61116d8161172a565b840191505092915050565b6000611185604083611584565b91506111908261173b565b604082019050919050565b60006111a8601f83611584565b91506111b38261178a565b602082019050919050565b60006111cb601f83611584565b91506111d6826117b3565b602082019050919050565b60006111ee601c83611584565b91506111f9826117dc565b602082019050919050565b6101408201600082015161121b600085018261139c565b50602082015161122e60208501826110b4565b506040820151611241604085018261139c565b50606082015161125460608501826110a5565b50608082015161126760808501826110a5565b5060a082015161127a60a085018261139c565b5060c082015161128d60c085018261139c565b5060e08201516112a060e085018261139c565b506101008201516112b561010085018261139c565b506101208201516112ca61012085018261139c565b50505050565b610140820160008201516112e7600085018261139c565b5060208201516112fa60208501826110b4565b50604082015161130d604085018261139c565b50606082015161132060608501826110a5565b50608082015161133360808501826110a5565b5060a082015161134660a085018261139c565b5060c082015161135960c085018261139c565b5060e082015161136c60e085018261139c565b5061010082015161138161010085018261139c565b5061012082015161139661012085018261139c565b50505050565b6113a581611663565b82525050565b6113b481611663565b82525050565b60006060820190506113cf60008301866110c3565b6113dc60208301856110c3565b6113e960408301846113ab565b949350505050565b600060e082019050611406600083018a6110c3565b61141360208301896110c3565b61142060408301886113ab565b61142d60608301876113ab565b61143a60808301866113ab565b61144760a0830185611130565b61145460c0830184611130565b98975050505050505050565b6000602082019050818103600083015261147a81846110d2565b905092915050565b6000602082019050818103600083015261149c818461113f565b905092915050565b600060208201905081810360008301526114bd81611178565b9050919050565b600060208201905081810360008301526114dd8161119b565b9050919050565b600060208201905081810360008301526114fd816111be565b9050919050565b6000602082019050818103600083015261151d816111e1565b9050919050565b60006101408201905061153a60008301846112d0565b92915050565b6000819050602082019050919050565b600081519050919050565b600081519050919050565b6000602082019050919050565b600082825260208201905092915050565b600082825260208201905092915050565b60006115a082611663565b91506115ab83611663565b9250827fffffffffffffffffffffffffffffffffffffffffffffffffffffffffffffffff038211156115e0576115df6116fb565b5b828201905092915050565b60006115f682611663565b915061160183611663565b925082821015611614576116136116fb565b5b828203905092915050565b600061162a82611643565b9050919050565b600061163c82611643565b9050919050565b600073ffffffffffffffffffffffffffffffffffffffff82169050919050565b6000819050919050565b600061167882611663565b9050919050565b60005b8381101561169d578082015181840152602081019050611682565b838111156116ac576000848401525b50505050565b60006116bd82611663565b91507fffffffffffffffffffffffffffffffffffffffffffffffffffffffffffffffff8214156116f0576116ef6116fb565b5b600182019050919050565b7f4e487b7100000000000000000000000000000000000000000000000000000000600052601160045260246000fd5b6000601f19601f8301169050919050565b7f506c65617365207375626d6974207468652061736b696e67207072696365206960008201527f6e206f7264657220746f20636f6d706c65746520746865207075726368617365602082015250565b7f546865206f776e6572206f6620746865204e4654206e6f74206d617463682100600082015250565b7f5265656e7472616e637947756172643a207265656e7472616e742063616c6c00600082015250565b7f5072696365206d757374206265206174206c6561737420312077656900000000600082015250565b61180e8161161f565b811461181957600080fd5b50565b61182581611663565b811461183057600080fd5b5056fea26469706673582212200e4f332b6bcd7cd95d90fb6689c82034c703b03a2e0cc7a757e87327111d079964736f6c63430008040033",
  "linkReferences": {},
  "deployedLinkReferences": {}
}