{
  "_format": "hh-sol-artifact-1",
  "contractName": "VincentGeometryClub",
  "sourceName": "contracts/nfts/VincentGeometryClub.sol",
  "abi": [
    {
      "inputs": [
        {
          "internalType": "uint256",
          "name": "_maxSupply",
          "type": "uint256"
        },
        {
          "internalType": "uint256",
          "name": "_startTimeStamp",
          "type": "uint256"
        },
        {
          "internalType": "uint256",
          "name": "_setHolding",
          "type": "uint256"
        },
        {
          "internalType": "uint256",
          "name": "_maxHoldingBalance",
          "type": "uint256"
        },
        {
          "internalType": "string",
          "name": "_setBaseTokenURI",
          "type": "string"
        }
      ],
      "stateMutability": "nonpayable",
      "type": "constructor"
    },
    {
      "anonymous": false,
      "inputs": [
        {
          "indexed": true,
          "internalType": "address",
          "name": "owner",
          "type": "address"
        },
        {
          "indexed": true,
          "internalType": "address",
          "name": "approved",
          "type": "address"
        },
        {
          "indexed": true,
          "internalType": "uint256",
          "name": "tokenId",
          "type": "uint256"
        }
      ],
      "name": "Approval",
      "type": "event"
    },
    {
      "anonymous": false,
      "inputs": [
        {
          "indexed": true,
          "internalType": "address",
          "name": "owner",
          "type": "address"
        },
        {
          "indexed": true,
          "internalType": "address",
          "name": "operator",
          "type": "address"
        },
        {
          "indexed": false,
          "internalType": "bool",
          "name": "approved",
          "type": "bool"
        }
      ],
      "name": "ApprovalForAll",
      "type": "event"
    },
    {
      "anonymous": false,
      "inputs": [
        {
          "indexed": true,
          "internalType": "address",
          "name": "previousOwner",
          "type": "address"
        },
        {
          "indexed": true,
          "internalType": "address",
          "name": "newOwner",
          "type": "address"
        }
      ],
      "name": "OwnershipTransferred",
      "type": "event"
    },
    {
      "anonymous": false,
      "inputs": [
        {
          "indexed": false,
          "internalType": "address",
          "name": "account",
          "type": "address"
        }
      ],
      "name": "Paused",
      "type": "event"
    },
    {
      "anonymous": false,
      "inputs": [
        {
          "indexed": true,
          "internalType": "address",
          "name": "from",
          "type": "address"
        },
        {
          "indexed": true,
          "internalType": "address",
          "name": "to",
          "type": "address"
        },
        {
          "indexed": true,
          "internalType": "uint256",
          "name": "tokenId",
          "type": "uint256"
        }
      ],
      "name": "Transfer",
      "type": "event"
    },
    {
      "anonymous": false,
      "inputs": [
        {
          "indexed": false,
          "internalType": "address",
          "name": "account",
          "type": "address"
        }
      ],
      "name": "Unpaused",
      "type": "event"
    },
    {
      "inputs": [],
      "name": "MAX_HOLDING_BALANCE",
      "outputs": [
        {
          "internalType": "uint256",
          "name": "",
          "type": "uint256"
        }
      ],
      "stateMutability": "view",
      "type": "function"
    },
    {
      "inputs": [],
      "name": "MAX_PURCHASE",
      "outputs": [
        {
          "internalType": "uint256",
          "name": "",
          "type": "uint256"
        }
      ],
      "stateMutability": "view",
      "type": "function"
    },
    {
      "inputs": [],
      "name": "MAX_SUPPLY",
      "outputs": [
        {
          "internalType": "uint256",
          "name": "",
          "type": "uint256"
        }
      ],
      "stateMutability": "view",
      "type": "function"
    },
    {
      "inputs": [],
      "name": "MINT_PRICE",
      "outputs": [
        {
          "internalType": "uint256",
          "name": "",
          "type": "uint256"
        }
      ],
      "stateMutability": "view",
      "type": "function"
    },
    {
      "inputs": [],
      "name": "OWNER_HOLDING",
      "outputs": [
        {
          "internalType": "uint256",
          "name": "",
          "type": "uint256"
        }
      ],
      "stateMutability": "view",
      "type": "function"
    },
    {
      "inputs": [],
      "name": "START_TIMESTAMP",
      "outputs": [
        {
          "internalType": "uint256",
          "name": "",
          "type": "uint256"
        }
      ],
      "stateMutability": "view",
      "type": "function"
    },
    {
      "inputs": [
        {
          "internalType": "address",
          "name": "to",
          "type": "address"
        },
        {
          "internalType": "uint256",
          "name": "tokenId",
          "type": "uint256"
        }
      ],
      "name": "approve",
      "outputs": [],
      "stateMutability": "nonpayable",
      "type": "function"
    },
    {
      "inputs": [
        {
          "internalType": "address",
          "name": "owner",
          "type": "address"
        }
      ],
      "name": "balanceOf",
      "outputs": [
        {
          "internalType": "uint256",
          "name": "",
          "type": "uint256"
        }
      ],
      "stateMutability": "view",
      "type": "function"
    },
    {
      "inputs": [
        {
          "internalType": "uint256",
          "name": "tokenId",
          "type": "uint256"
        }
      ],
      "name": "getApproved",
      "outputs": [
        {
          "internalType": "address",
          "name": "",
          "type": "address"
        }
      ],
      "stateMutability": "view",
      "type": "function"
    },
    {
      "inputs": [
        {
          "internalType": "address",
          "name": "owner",
          "type": "address"
        },
        {
          "internalType": "address",
          "name": "operator",
          "type": "address"
        }
      ],
      "name": "isApprovedForAll",
      "outputs": [
        {
          "internalType": "bool",
          "name": "",
          "type": "bool"
        }
      ],
      "stateMutability": "view",
      "type": "function"
    },
    {
      "inputs": [
        {
          "internalType": "uint256",
          "name": "_purchaseQuantity",
          "type": "uint256"
        }
      ],
      "name": "mintGeometry",
      "outputs": [],
      "stateMutability": "payable",
      "type": "function"
    },
    {
      "inputs": [],
      "name": "name",
      "outputs": [
        {
          "internalType": "string",
          "name": "",
          "type": "string"
        }
      ],
      "stateMutability": "view",
      "type": "function"
    },
    {
      "inputs": [],
      "name": "owner",
      "outputs": [
        {
          "internalType": "address",
          "name": "",
          "type": "address"
        }
      ],
      "stateMutability": "view",
      "type": "function"
    },
    {
      "inputs": [
        {
          "internalType": "uint256",
          "name": "tokenId",
          "type": "uint256"
        }
      ],
      "name": "ownerOf",
      "outputs": [
        {
          "internalType": "address",
          "name": "",
          "type": "address"
        }
      ],
      "stateMutability": "view",
      "type": "function"
    },
    {
      "inputs": [],
      "name": "pause",
      "outputs": [],
      "stateMutability": "nonpayable",
      "type": "function"
    },
    {
      "inputs": [],
      "name": "paused",
      "outputs": [
        {
          "internalType": "bool",
          "name": "",
          "type": "bool"
        }
      ],
      "stateMutability": "view",
      "type": "function"
    },
    {
      "inputs": [],
      "name": "renounceOwnership",
      "outputs": [],
      "stateMutability": "nonpayable",
      "type": "function"
    },
    {
      "inputs": [
        {
          "internalType": "address",
          "name": "from",
          "type": "address"
        },
        {
          "internalType": "address",
          "name": "to",
          "type": "address"
        },
        {
          "internalType": "uint256",
          "name": "tokenId",
          "type": "uint256"
        }
      ],
      "name": "safeTransferFrom",
      "outputs": [],
      "stateMutability": "nonpayable",
      "type": "function"
    },
    {
      "inputs": [
        {
          "internalType": "address",
          "name": "from",
          "type": "address"
        },
        {
          "internalType": "address",
          "name": "to",
          "type": "address"
        },
        {
          "internalType": "uint256",
          "name": "tokenId",
          "type": "uint256"
        },
        {
          "internalType": "bytes",
          "name": "_data",
          "type": "bytes"
        }
      ],
      "name": "safeTransferFrom",
      "outputs": [],
      "stateMutability": "nonpayable",
      "type": "function"
    },
    {
      "inputs": [
        {
          "internalType": "address",
          "name": "operator",
          "type": "address"
        },
        {
          "internalType": "bool",
          "name": "approved",
          "type": "bool"
        }
      ],
      "name": "setApprovalForAll",
      "outputs": [],
      "stateMutability": "nonpayable",
      "type": "function"
    },
    {
      "inputs": [
        {
          "internalType": "string",
          "name": "baseURI",
          "type": "string"
        }
      ],
      "name": "setBaseURI",
      "outputs": [],
      "stateMutability": "nonpayable",
      "type": "function"
    },
    {
      "inputs": [
        {
          "internalType": "uint256",
          "name": "_maxSupply",
          "type": "uint256"
        }
      ],
      "name": "setMaxSupply",
      "outputs": [],
      "stateMutability": "nonpayable",
      "type": "function"
    },
    {
      "inputs": [
        {
          "internalType": "uint256",
          "name": "_mintPrice",
          "type": "uint256"
        }
      ],
      "name": "setMintPrice",
      "outputs": [],
      "stateMutability": "nonpayable",
      "type": "function"
    },
    {
      "inputs": [
        {
          "internalType": "bytes4",
          "name": "interfaceId",
          "type": "bytes4"
        }
      ],
      "name": "supportsInterface",
      "outputs": [
        {
          "internalType": "bool",
          "name": "",
          "type": "bool"
        }
      ],
      "stateMutability": "view",
      "type": "function"
    },
    {
      "inputs": [],
      "name": "symbol",
      "outputs": [
        {
          "internalType": "string",
          "name": "",
          "type": "string"
        }
      ],
      "stateMutability": "view",
      "type": "function"
    },
    {
      "inputs": [
        {
          "internalType": "uint256",
          "name": "index",
          "type": "uint256"
        }
      ],
      "name": "tokenByIndex",
      "outputs": [
        {
          "internalType": "uint256",
          "name": "",
          "type": "uint256"
        }
      ],
      "stateMutability": "view",
      "type": "function"
    },
    {
      "inputs": [
        {
          "internalType": "address",
          "name": "owner",
          "type": "address"
        },
        {
          "internalType": "uint256",
          "name": "index",
          "type": "uint256"
        }
      ],
      "name": "tokenOfOwnerByIndex",
      "outputs": [
        {
          "internalType": "uint256",
          "name": "",
          "type": "uint256"
        }
      ],
      "stateMutability": "view",
      "type": "function"
    },
    {
      "inputs": [
        {
          "internalType": "uint256",
          "name": "tokenId",
          "type": "uint256"
        }
      ],
      "name": "tokenURI",
      "outputs": [
        {
          "internalType": "string",
          "name": "",
          "type": "string"
        }
      ],
      "stateMutability": "view",
      "type": "function"
    },
    {
      "inputs": [],
      "name": "totalSupply",
      "outputs": [
        {
          "internalType": "uint256",
          "name": "",
          "type": "uint256"
        }
      ],
      "stateMutability": "view",
      "type": "function"
    },
    {
      "inputs": [
        {
          "internalType": "address",
          "name": "from",
          "type": "address"
        },
        {
          "internalType": "address",
          "name": "to",
          "type": "address"
        },
        {
          "internalType": "uint256",
          "name": "tokenId",
          "type": "uint256"
        }
      ],
      "name": "transferFrom",
      "outputs": [],
      "stateMutability": "nonpayable",
      "type": "function"
    },
    {
      "inputs": [
        {
          "internalType": "address",
          "name": "newOwner",
          "type": "address"
        }
      ],
      "name": "transferOwnership",
      "outputs": [],
      "stateMutability": "nonpayable",
      "type": "function"
    },
    {
      "inputs": [],
      "name": "unpause",
      "outputs": [],
      "stateMutability": "nonpayable",
      "type": "function"
    }
  ],
  "bytecode": "0x6080604052661c6bf5263400006010553480156200001c57600080fd5b5060405162006203380380620062038339818101604052810190620000429190620011c1565b6040518060400160405280601581526020017f56696e63656e742047656f6d6574727920436c756200000000000000000000008152506040518060400160405280600681526020017f5647436c756200000000000000000000000000000000000000000000000000008152508160009080519060200190620000c692919062001045565b508060019080519060200190620000df92919062001045565b5050506000600b60006101000a81548160ff0219169083151502179055506200011d620001116200023560201b60201c565b6200023d60201b60201c565b84600c8190555083600d8190555082600e8190555081600f8190555080601190805190602001906200015192919062001045565b5060005b600e5481101562000229576200017760126200030360201b620015a31760201c565b6200019f336200019360126200031960201b620015b91760201c565b6200032760201b60201c565b62000213620001ba60126200031960201b620015b91760201c565b620001e6620001d560126200031960201b620015b91760201c565b6200034d60201b620015c71760201c565b604051602001620001f8919062001407565b6040516020818303038152906040526200050f60201b60201c565b80806200022090620017cb565b91505062000155565b50505050505062001ae3565b600033905090565b6000600b60019054906101000a900473ffffffffffffffffffffffffffffffffffffffff16905081600b60016101000a81548173ffffffffffffffffffffffffffffffffffffffff021916908373ffffffffffffffffffffffffffffffffffffffff1602179055508173ffffffffffffffffffffffffffffffffffffffff168173ffffffffffffffffffffffffffffffffffffffff167f8be0079c531659141344cd1fd0a4f28419497f9722a3daafe3b4186f6b6457e060405160405180910390a35050565b6001816000016000828254019250508190555050565b600081600001549050919050565b620003498282604051806020016040528060008152506200059060201b60201c565b5050565b6060600082141562000397576040518060400160405280600181526020017f300000000000000000000000000000000000000000000000000000000000000081525090506200050a565b600082905060005b60008214620003cf578080620003b590620017cb565b915050600a82620003c791906200164c565b91506200039f565b60008167ffffffffffffffff81111562000412577f4e487b7100000000000000000000000000000000000000000000000000000000600052604160045260246000fd5b6040519080825280601f01601f191660200182016040528015620004455781602001600182028036833780820191505090505b5090505b60008514620005035760018262000461919062001684565b9150600a8562000472919062001819565b6030620004809190620015ef565b60f81b818381518110620004bd577f4e487b7100000000000000000000000000000000000000000000000000000000600052603260045260246000fd5b60200101907effffffffffffffffffffffffffffffffffffffffffffffffffffffffffffff1916908160001a905350600a85620004fb91906200164c565b945062000449565b8093505050505b919050565b6200052082620005fe60201b60201c565b62000562576040517f08c379a0000000000000000000000000000000000000000000000000000000008152600401620005599062001509565b60405180910390fd5b80600a600084815260200190815260200160002090805190602001906200058b92919062001045565b505050565b620005a283836200066a60201b60201c565b620005b760008484846200085060201b60201c565b620005f9576040517f08c379a0000000000000000000000000000000000000000000000000000000008152600401620005f09062001481565b60405180910390fd5b505050565b60008073ffffffffffffffffffffffffffffffffffffffff166002600084815260200190815260200160002060009054906101000a900473ffffffffffffffffffffffffffffffffffffffff1673ffffffffffffffffffffffffffffffffffffffff1614159050919050565b600073ffffffffffffffffffffffffffffffffffffffff168273ffffffffffffffffffffffffffffffffffffffff161415620006dd576040517f08c379a0000000000000000000000000000000000000000000000000000000008152600401620006d4906200152b565b60405180910390fd5b620006ee81620005fe60201b60201c565b1562000731576040517f08c379a00000000000000000000000000000000000000000000000000000000081526004016200072890620014a3565b60405180910390fd5b620007456000838362000a0a60201b60201c565b6001600360008473ffffffffffffffffffffffffffffffffffffffff1673ffffffffffffffffffffffffffffffffffffffff1681526020019081526020016000206000828254620007979190620015ef565b92505081905550816002600083815260200190815260200160002060006101000a81548173ffffffffffffffffffffffffffffffffffffffff021916908373ffffffffffffffffffffffffffffffffffffffff160217905550808273ffffffffffffffffffffffffffffffffffffffff16600073ffffffffffffffffffffffffffffffffffffffff167fddf252ad1be2c89b69c2b068fc378daa952ba7f163c4a11628f55a4df523b3ef60405160405180910390a45050565b60006200087e8473ffffffffffffffffffffffffffffffffffffffff1662000a7a60201b620017741760201c565b15620009fd578373ffffffffffffffffffffffffffffffffffffffff1663150b7a02620008b06200023560201b60201c565b8786866040518563ffffffff1660e01b8152600401620008d494939291906200142d565b602060405180830381600087803b158015620008ef57600080fd5b505af19250505080156200092357506040513d601f19601f8201168201806040525081019062000920919062001195565b60015b620009ac573d806000811462000956576040519150601f19603f3d011682016040523d82523d6000602084013e6200095b565b606091505b50600081511415620009a4576040517f08c379a00000000000000000000000000000000000000000000000000000000081526004016200099b9062001481565b60405180910390fd5b805181602001fd5b63150b7a0260e01b7bffffffffffffffffffffffffffffffffffffffffffffffffffffffff1916817bffffffffffffffffffffffffffffffffffffffffffffffffffffffff19161491505062000a02565b600190505b949350505050565b62000a1a62000a8d60201b60201c565b1562000a5d576040517f08c379a000000000000000000000000000000000000000000000000000000000815260040162000a5490620014c5565b60405180910390fd5b62000a7583838362000aa460201b620017871760201c565b505050565b600080823b905060008111915050919050565b6000600b60009054906101000a900460ff16905090565b62000abc83838362000beb60201b6200189b1760201c565b600073ffffffffffffffffffffffffffffffffffffffff168373ffffffffffffffffffffffffffffffffffffffff16141562000b095762000b038162000bf060201b60201c565b62000b51565b8173ffffffffffffffffffffffffffffffffffffffff168373ffffffffffffffffffffffffffffffffffffffff161462000b505762000b4f838262000c3960201b60201c565b5b5b600073ffffffffffffffffffffffffffffffffffffffff168273ffffffffffffffffffffffffffffffffffffffff16141562000b9e5762000b988162000db660201b60201c565b62000be6565b8273ffffffffffffffffffffffffffffffffffffffff168273ffffffffffffffffffffffffffffffffffffffff161462000be55762000be4828262000efe60201b60201c565b5b5b505050565b505050565b6008805490506009600083815260200190815260200160002081905550600881908060018154018082558091505060019003906000526020600020016000909190919091505550565b6000600162000c538462000f8a60201b62000e3c1760201c565b62000c5f919062001684565b905060006007600084815260200190815260200160002054905081811462000d45576000600660008673ffffffffffffffffffffffffffffffffffffffff1673ffffffffffffffffffffffffffffffffffffffff168152602001908152602001600020600084815260200190815260200160002054905080600660008773ffffffffffffffffffffffffffffffffffffffff1673ffffffffffffffffffffffffffffffffffffffff168152602001908152602001600020600084815260200190815260200160002081905550816007600083815260200190815260200160002081905550505b6007600084815260200190815260200160002060009055600660008573ffffffffffffffffffffffffffffffffffffffff1673ffffffffffffffffffffffffffffffffffffffff16815260200190815260200160002060008381526020019081526020016000206000905550505050565b6000600160088054905062000dcc919062001684565b905060006009600084815260200190815260200160002054905060006008838154811062000e23577f4e487b7100000000000000000000000000000000000000000000000000000000600052603260045260246000fd5b90600052602060002001549050806008838154811062000e6c577f4e487b7100000000000000000000000000000000000000000000000000000000600052603260045260246000fd5b90600052602060002001819055508160096000838152602001908152602001600020819055506009600085815260200190815260200160002060009055600880548062000ee2577f4e487b7100000000000000000000000000000000000000000000000000000000600052603160045260246000fd5b6001900381819060005260206000200160009055905550505050565b600062000f168362000f8a60201b62000e3c1760201c565b905081600660008573ffffffffffffffffffffffffffffffffffffffff1673ffffffffffffffffffffffffffffffffffffffff168152602001908152602001600020600083815260200190815260200160002081905550806007600084815260200190815260200160002081905550505050565b60008073ffffffffffffffffffffffffffffffffffffffff168273ffffffffffffffffffffffffffffffffffffffff16141562000ffe576040517f08c379a000000000000000000000000000000000000000000000000000000000815260040162000ff590620014e7565b60405180910390fd5b600360008373ffffffffffffffffffffffffffffffffffffffff1673ffffffffffffffffffffffffffffffffffffffff168152602001908152602001600020549050919050565b82805462001053906200175f565b90600052602060002090601f016020900481019282620010775760008555620010c3565b82601f106200109257805160ff1916838001178555620010c3565b82800160010185558215620010c3579182015b82811115620010c2578251825591602001919060010190620010a5565b5b509050620010d29190620010d6565b5090565b5b80821115620010f1576000816000905550600101620010d7565b5090565b60006200110c620011068462001576565b6200154d565b9050828152602081018484840111156200112557600080fd5b6200113284828562001729565b509392505050565b6000815190506200114b8162001aaf565b92915050565b600082601f8301126200116357600080fd5b815162001175848260208601620010f5565b91505092915050565b6000815190506200118f8162001ac9565b92915050565b600060208284031215620011a857600080fd5b6000620011b8848285016200113a565b91505092915050565b600080600080600060a08688031215620011da57600080fd5b6000620011ea888289016200117e565b9550506020620011fd888289016200117e565b945050604062001210888289016200117e565b935050606062001223888289016200117e565b925050608086015167ffffffffffffffff8111156200124157600080fd5b6200124f8882890162001151565b9150509295509295909350565b6200126781620016bf565b82525050565b60006200127a82620015ac565b620012868185620015c2565b93506200129881856020860162001729565b620012a3816200190d565b840191505092915050565b6000620012bb82620015b7565b620012c78185620015e4565b9350620012d981856020860162001729565b80840191505092915050565b6000620012f4603283620015d3565b915062001301826200191e565b604082019050919050565b60006200131b601c83620015d3565b915062001328826200196d565b602082019050919050565b600062001342601083620015d3565b91506200134f8262001996565b602082019050919050565b600062001369602a83620015d3565b91506200137682620019bf565b604082019050919050565b600062001390602e83620015d3565b91506200139d8262001a0e565b604082019050919050565b6000620013b7602083620015d3565b9150620013c48262001a5d565b602082019050919050565b6000620013de600583620015e4565b9150620013eb8262001a86565b600582019050919050565b62001401816200171f565b82525050565b6000620014158284620012ae565b91506200142282620013cf565b915081905092915050565b60006080820190506200144460008301876200125c565b6200145360208301866200125c565b620014626040830185620013f6565b81810360608301526200147681846200126d565b905095945050505050565b600060208201905081810360008301526200149c81620012e5565b9050919050565b60006020820190508181036000830152620014be816200130c565b9050919050565b60006020820190508181036000830152620014e08162001333565b9050919050565b6000602082019050818103600083015262001502816200135a565b9050919050565b60006020820190508181036000830152620015248162001381565b9050919050565b600060208201905081810360008301526200154681620013a8565b9050919050565b6000620015596200156c565b905062001567828262001795565b919050565b6000604051905090565b600067ffffffffffffffff821115620015945762001593620018de565b5b6200159f826200190d565b9050602081019050919050565b600081519050919050565b600081519050919050565b600082825260208201905092915050565b600082825260208201905092915050565b600081905092915050565b6000620015fc826200171f565b915062001609836200171f565b9250827fffffffffffffffffffffffffffffffffffffffffffffffffffffffffffffffff0382111562001641576200164062001851565b5b828201905092915050565b600062001659826200171f565b915062001666836200171f565b92508262001679576200167862001880565b5b828204905092915050565b600062001691826200171f565b91506200169e836200171f565b925082821015620016b457620016b362001851565b5b828203905092915050565b6000620016cc82620016ff565b9050919050565b60007fffffffff0000000000000000000000000000000000000000000000000000000082169050919050565b600073ffffffffffffffffffffffffffffffffffffffff82169050919050565b6000819050919050565b60005b83811015620017495780820151818401526020810190506200172c565b8381111562001759576000848401525b50505050565b600060028204905060018216806200177857607f821691505b602082108114156200178f576200178e620018af565b5b50919050565b620017a0826200190d565b810181811067ffffffffffffffff82111715620017c257620017c1620018de565b5b80604052505050565b6000620017d8826200171f565b91507fffffffffffffffffffffffffffffffffffffffffffffffffffffffffffffffff8214156200180e576200180d62001851565b5b600182019050919050565b600062001826826200171f565b915062001833836200171f565b92508262001846576200184562001880565b5b828206905092915050565b7f4e487b7100000000000000000000000000000000000000000000000000000000600052601160045260246000fd5b7f4e487b7100000000000000000000000000000000000000000000000000000000600052601260045260246000fd5b7f4e487b7100000000000000000000000000000000000000000000000000000000600052602260045260246000fd5b7f4e487b7100000000000000000000000000000000000000000000000000000000600052604160045260246000fd5b6000601f19601f8301169050919050565b7f4552433732313a207472616e7366657220746f206e6f6e20455243373231526560008201527f63656976657220696d706c656d656e7465720000000000000000000000000000602082015250565b7f4552433732313a20746f6b656e20616c7265616479206d696e74656400000000600082015250565b7f5061757361626c653a2070617573656400000000000000000000000000000000600082015250565b7f4552433732313a2062616c616e636520717565727920666f7220746865207a6560008201527f726f206164647265737300000000000000000000000000000000000000000000602082015250565b7f45524337323155524953746f726167653a2055524920736574206f66206e6f6e60008201527f6578697374656e7420746f6b656e000000000000000000000000000000000000602082015250565b7f4552433732313a206d696e7420746f20746865207a65726f2061646472657373600082015250565b7f2e6a736f6e000000000000000000000000000000000000000000000000000000600082015250565b62001aba81620016d3565b811462001ac657600080fd5b50565b62001ad4816200171f565b811462001ae057600080fd5b50565b6147108062001af36000396000f3fe6080604052600436106101e35760003560e01c806370a0823111610102578063a22cb46511610095578063e985e9c511610064578063e985e9c5146106c1578063f2fde38b146106fe578063f4a0a52814610727578063f744676614610750576101e3565b8063a22cb46514610607578063b88d4fde14610630578063c002d23d14610659578063c87b56dd14610684576101e3565b80637bd05087116100d15780637bd050871461057e5780638456cb591461059a5780638da5cb5b146105b157806395d89b41146105dc576101e3565b806370a08231146104d45780637146bd0814610511578063715018a61461053c578063781cd99d14610553576101e3565b80633f4ba83a1161017a57806355f804b31161014957806355f804b31461041a5780635c975abb146104435780636352211e1461046e5780636f8b44b0146104ab576101e3565b80633f4ba83a1461037257806342842e0e1461038957806344eee4a4146103b25780634f6ccce7146103dd576101e3565b806318160ddd116101b657806318160ddd146102b657806323b872dd146102e15780632f745c591461030a57806332cb6b0c14610347576101e3565b806301ffc9a7146101e857806306fdde0314610225578063081812fc14610250578063095ea7b31461028d575b600080fd5b3480156101f457600080fd5b5061020f600480360381019061020a9190613139565b61077b565b60405161021c919061376d565b60405180910390f35b34801561023157600080fd5b5061023a61078d565b6040516102479190613788565b60405180910390f35b34801561025c57600080fd5b50610277600480360381019061027291906131d0565b61081f565b6040516102849190613706565b60405180910390f35b34801561029957600080fd5b506102b460048036038101906102af91906130fd565b6108a4565b005b3480156102c257600080fd5b506102cb6109bc565b6040516102d89190613b2a565b60405180910390f35b3480156102ed57600080fd5b5061030860048036038101906103039190612ff7565b6109c9565b005b34801561031657600080fd5b50610331600480360381019061032c91906130fd565b610a29565b60405161033e9190613b2a565b60405180910390f35b34801561035357600080fd5b5061035c610ace565b6040516103699190613b2a565b60405180910390f35b34801561037e57600080fd5b50610387610ad4565b005b34801561039557600080fd5b506103b060048036038101906103ab9190612ff7565b610b5a565b005b3480156103be57600080fd5b506103c7610b7a565b6040516103d49190613b2a565b60405180910390f35b3480156103e957600080fd5b5061040460048036038101906103ff91906131d0565b610b80565b6040516104119190613b2a565b60405180910390f35b34801561042657600080fd5b50610441600480360381019061043c919061318b565b610c17565b005b34801561044f57600080fd5b50610458610ca9565b604051610465919061376d565b60405180910390f35b34801561047a57600080fd5b50610495600480360381019061049091906131d0565b610cc0565b6040516104a29190613706565b60405180910390f35b3480156104b757600080fd5b506104d260048036038101906104cd91906131d0565b610d72565b005b3480156104e057600080fd5b506104fb60048036038101906104f69190612f92565b610e3c565b6040516105089190613b2a565b60405180910390f35b34801561051d57600080fd5b50610526610ef4565b6040516105339190613b2a565b60405180910390f35b34801561054857600080fd5b50610551610ef9565b005b34801561055f57600080fd5b50610568610f81565b6040516105759190613b2a565b60405180910390f35b610598600480360381019061059391906131d0565b610f87565b005b3480156105a657600080fd5b506105af6111b9565b005b3480156105bd57600080fd5b506105c661123f565b6040516105d39190613706565b60405180910390f35b3480156105e857600080fd5b506105f1611269565b6040516105fe9190613788565b60405180910390f35b34801561061357600080fd5b5061062e600480360381019061062991906130c1565b6112fb565b005b34801561063c57600080fd5b5061065760048036038101906106529190613046565b611311565b005b34801561066557600080fd5b5061066e611373565b60405161067b9190613b2a565b60405180910390f35b34801561069057600080fd5b506106ab60048036038101906106a691906131d0565b611379565b6040516106b89190613788565b60405180910390f35b3480156106cd57600080fd5b506106e860048036038101906106e39190612fbb565b61138b565b6040516106f5919061376d565b60405180910390f35b34801561070a57600080fd5b5061072560048036038101906107209190612f92565b61141f565b005b34801561073357600080fd5b5061074e600480360381019061074991906131d0565b611517565b005b34801561075c57600080fd5b5061076561159d565b6040516107729190613b2a565b60405180910390f35b6000610786826118a0565b9050919050565b60606000805461079c90613da9565b80601f01602080910402602001604051908101604052809291908181526020018280546107c890613da9565b80156108155780601f106107ea57610100808354040283529160200191610815565b820191906000526020600020905b8154815290600101906020018083116107f857829003601f168201915b5050505050905090565b600061082a8261191a565b610869576040517f08c379a000000000000000000000000000000000000000000000000000000000815260040161086090613a2a565b60405180910390fd5b6004600083815260200190815260200160002060009054906101000a900473ffffffffffffffffffffffffffffffffffffffff169050919050565b60006108af82610cc0565b90508073ffffffffffffffffffffffffffffffffffffffff168373ffffffffffffffffffffffffffffffffffffffff161415610920576040517f08c379a000000000000000000000000000000000000000000000000000000000815260040161091790613aca565b60405180910390fd5b8073ffffffffffffffffffffffffffffffffffffffff1661093f611986565b73ffffffffffffffffffffffffffffffffffffffff16148061096e575061096d81610968611986565b61138b565b5b6109ad576040517f08c379a00000000000000000000000000000000000000000000000000000000081526004016109a49061394a565b60405180910390fd5b6109b7838361198e565b505050565b6000600880549050905090565b6109da6109d4611986565b82611a47565b610a19576040517f08c379a0000000000000000000000000000000000000000000000000000000008152600401610a1090613aea565b60405180910390fd5b610a24838383611b25565b505050565b6000610a3483610e3c565b8210610a75576040517f08c379a0000000000000000000000000000000000000000000000000000000008152600401610a6c9061380a565b60405180910390fd5b600660008473ffffffffffffffffffffffffffffffffffffffff1673ffffffffffffffffffffffffffffffffffffffff168152602001908152602001600020600083815260200190815260200160002054905092915050565b600c5481565b610adc611986565b73ffffffffffffffffffffffffffffffffffffffff16610afa61123f565b73ffffffffffffffffffffffffffffffffffffffff1614610b50576040517f08c379a0000000000000000000000000000000000000000000000000000000008152600401610b4790613a6a565b60405180910390fd5b610b58611d81565b565b610b7583838360405180602001604052806000815250611311565b505050565b600e5481565b6000610b8a6109bc565b8210610bcb576040517f08c379a0000000000000000000000000000000000000000000000000000000008152600401610bc290613b0a565b60405180910390fd5b60088281548110610c05577f4e487b7100000000000000000000000000000000000000000000000000000000600052603260045260246000fd5b90600052602060002001549050919050565b610c1f611986565b73ffffffffffffffffffffffffffffffffffffffff16610c3d61123f565b73ffffffffffffffffffffffffffffffffffffffff1614610c93576040517f08c379a0000000000000000000000000000000000000000000000000000000008152600401610c8a90613a6a565b60405180910390fd5b818160119190610ca4929190612d4e565b505050565b6000600b60009054906101000a900460ff16905090565b6000806002600084815260200190815260200160002060009054906101000a900473ffffffffffffffffffffffffffffffffffffffff169050600073ffffffffffffffffffffffffffffffffffffffff168173ffffffffffffffffffffffffffffffffffffffff161415610d69576040517f08c379a0000000000000000000000000000000000000000000000000000000008152600401610d609061398a565b60405180910390fd5b80915050919050565b610d7a611986565b73ffffffffffffffffffffffffffffffffffffffff16610d9861123f565b73ffffffffffffffffffffffffffffffffffffffff1614610dee576040517f08c379a0000000000000000000000000000000000000000000000000000000008152600401610de590613a6a565b60405180910390fd5b600c548110610e32576040517f08c379a0000000000000000000000000000000000000000000000000000000008152600401610e299061390a565b60405180910390fd5b80600c8190555050565b60008073ffffffffffffffffffffffffffffffffffffffff168273ffffffffffffffffffffffffffffffffffffffff161415610ead576040517f08c379a0000000000000000000000000000000000000000000000000000000008152600401610ea49061396a565b60405180910390fd5b600360008373ffffffffffffffffffffffffffffffffffffffff1673ffffffffffffffffffffffffffffffffffffffff168152602001908152602001600020549050919050565b600381565b610f01611986565b73ffffffffffffffffffffffffffffffffffffffff16610f1f61123f565b73ffffffffffffffffffffffffffffffffffffffff1614610f75576040517f08c379a0000000000000000000000000000000000000000000000000000000008152600401610f6c90613a6a565b60405180910390fd5b610f7f6000611e23565b565b600d5481565b600073ffffffffffffffffffffffffffffffffffffffff163373ffffffffffffffffffffffffffffffffffffffff161415610ff7576040517f08c379a0000000000000000000000000000000000000000000000000000000008152600401610fee906137ea565b60405180910390fd5b806010546110059190613c65565b3414611046576040517f08c379a000000000000000000000000000000000000000000000000000000000815260040161103d906137aa565b60405180910390fd5b600c54816110526109bc565b61105c9190613bde565b1061109c576040517f08c379a000000000000000000000000000000000000000000000000000000000815260040161109390613a4a565b60405180910390fd5b60038111156110e0576040517f08c379a00000000000000000000000000000000000000000000000000000000081526004016110d7906138ca565b60405180910390fd5b80600f546110ee9190613bde565b6110f733610e3c565b10611137576040517f08c379a000000000000000000000000000000000000000000000000000000000815260040161112e906139ca565b60405180910390fd5b60005b818110156111b55761114c60126115a3565b61115f3361115a60126115b9565b611ee9565b6111a261116c60126115b9565b61117e61117960126115b9565b6115c7565b60405160200161118e91906136e4565b604051602081830303815290604052611f07565b80806111ad90613e0c565b91505061113a565b5050565b6111c1611986565b73ffffffffffffffffffffffffffffffffffffffff166111df61123f565b73ffffffffffffffffffffffffffffffffffffffff1614611235576040517f08c379a000000000000000000000000000000000000000000000000000000000815260040161122c90613a6a565b60405180910390fd5b61123d611f7b565b565b6000600b60019054906101000a900473ffffffffffffffffffffffffffffffffffffffff16905090565b60606001805461127890613da9565b80601f01602080910402602001604051908101604052809291908181526020018280546112a490613da9565b80156112f15780601f106112c6576101008083540402835291602001916112f1565b820191906000526020600020905b8154815290600101906020018083116112d457829003601f168201915b5050505050905090565b61130d611306611986565b838361201e565b5050565b61132261131c611986565b83611a47565b611361576040517f08c379a000000000000000000000000000000000000000000000000000000000815260040161135890613aea565b60405180910390fd5b61136d8484848461218b565b50505050565b60105481565b6060611384826121e7565b9050919050565b6000600560008473ffffffffffffffffffffffffffffffffffffffff1673ffffffffffffffffffffffffffffffffffffffff16815260200190815260200160002060008373ffffffffffffffffffffffffffffffffffffffff1673ffffffffffffffffffffffffffffffffffffffff16815260200190815260200160002060009054906101000a900460ff16905092915050565b611427611986565b73ffffffffffffffffffffffffffffffffffffffff1661144561123f565b73ffffffffffffffffffffffffffffffffffffffff161461149b576040517f08c379a000000000000000000000000000000000000000000000000000000000815260040161149290613a6a565b60405180910390fd5b600073ffffffffffffffffffffffffffffffffffffffff168173ffffffffffffffffffffffffffffffffffffffff16141561150b576040517f08c379a00000000000000000000000000000000000000000000000000000000081526004016115029061384a565b60405180910390fd5b61151481611e23565b50565b61151f611986565b73ffffffffffffffffffffffffffffffffffffffff1661153d61123f565b73ffffffffffffffffffffffffffffffffffffffff1614611593576040517f08c379a000000000000000000000000000000000000000000000000000000000815260040161158a90613a6a565b60405180910390fd5b8060108190555050565b600f5481565b6001816000016000828254019250508190555050565b600081600001549050919050565b6060600082141561160f576040518060400160405280600181526020017f3000000000000000000000000000000000000000000000000000000000000000815250905061176f565b600082905060005b6000821461164157808061162a90613e0c565b915050600a8261163a9190613c34565b9150611617565b60008167ffffffffffffffff811115611683577f4e487b7100000000000000000000000000000000000000000000000000000000600052604160045260246000fd5b6040519080825280601f01601f1916602001820160405280156116b55781602001600182028036833780820191505090505b5090505b60008514611768576001826116ce9190613cbf565b9150600a856116dd9190613e55565b60306116e99190613bde565b60f81b818381518110611725577f4e487b7100000000000000000000000000000000000000000000000000000000600052603260045260246000fd5b60200101907effffffffffffffffffffffffffffffffffffffffffffffffffffffffffffff1916908160001a905350600a856117619190613c34565b94506116b9565b8093505050505b919050565b600080823b905060008111915050919050565b61179283838361189b565b600073ffffffffffffffffffffffffffffffffffffffff168373ffffffffffffffffffffffffffffffffffffffff1614156117d5576117d081612339565b611814565b8173ffffffffffffffffffffffffffffffffffffffff168373ffffffffffffffffffffffffffffffffffffffff1614611813576118128382612382565b5b5b600073ffffffffffffffffffffffffffffffffffffffff168273ffffffffffffffffffffffffffffffffffffffff16141561185757611852816124ef565b611896565b8273ffffffffffffffffffffffffffffffffffffffff168273ffffffffffffffffffffffffffffffffffffffff1614611895576118948282612632565b5b5b505050565b505050565b60007f780e9d63000000000000000000000000000000000000000000000000000000007bffffffffffffffffffffffffffffffffffffffffffffffffffffffff1916827bffffffffffffffffffffffffffffffffffffffffffffffffffffffff191614806119135750611912826126b1565b5b9050919050565b60008073ffffffffffffffffffffffffffffffffffffffff166002600084815260200190815260200160002060009054906101000a900473ffffffffffffffffffffffffffffffffffffffff1673ffffffffffffffffffffffffffffffffffffffff1614159050919050565b600033905090565b816004600083815260200190815260200160002060006101000a81548173ffffffffffffffffffffffffffffffffffffffff021916908373ffffffffffffffffffffffffffffffffffffffff160217905550808273ffffffffffffffffffffffffffffffffffffffff16611a0183610cc0565b73ffffffffffffffffffffffffffffffffffffffff167f8c5be1e5ebec7d5bd14f71427d1e84f3dd0314c0f7b2291e5b200ac8c7c3b92560405160405180910390a45050565b6000611a528261191a565b611a91576040517f08c379a0000000000000000000000000000000000000000000000000000000008152600401611a88906138ea565b60405180910390fd5b6000611a9c83610cc0565b90508073ffffffffffffffffffffffffffffffffffffffff168473ffffffffffffffffffffffffffffffffffffffff161480611b0b57508373ffffffffffffffffffffffffffffffffffffffff16611af38461081f565b73ffffffffffffffffffffffffffffffffffffffff16145b80611b1c5750611b1b818561138b565b5b91505092915050565b8273ffffffffffffffffffffffffffffffffffffffff16611b4582610cc0565b73ffffffffffffffffffffffffffffffffffffffff1614611b9b576040517f08c379a0000000000000000000000000000000000000000000000000000000008152600401611b9290613a8a565b60405180910390fd5b600073ffffffffffffffffffffffffffffffffffffffff168273ffffffffffffffffffffffffffffffffffffffff161415611c0b576040517f08c379a0000000000000000000000000000000000000000000000000000000008152600401611c029061388a565b60405180910390fd5b611c16838383612793565b611c2160008261198e565b6001600360008573ffffffffffffffffffffffffffffffffffffffff1673ffffffffffffffffffffffffffffffffffffffff1681526020019081526020016000206000828254611c719190613cbf565b925050819055506001600360008473ffffffffffffffffffffffffffffffffffffffff1673ffffffffffffffffffffffffffffffffffffffff1681526020019081526020016000206000828254611cc89190613bde565b92505081905550816002600083815260200190815260200160002060006101000a81548173ffffffffffffffffffffffffffffffffffffffff021916908373ffffffffffffffffffffffffffffffffffffffff160217905550808273ffffffffffffffffffffffffffffffffffffffff168473ffffffffffffffffffffffffffffffffffffffff167fddf252ad1be2c89b69c2b068fc378daa952ba7f163c4a11628f55a4df523b3ef60405160405180910390a4505050565b611d89610ca9565b611dc8576040517f08c379a0000000000000000000000000000000000000000000000000000000008152600401611dbf906137ca565b60405180910390fd5b6000600b60006101000a81548160ff0219169083151502179055507f5db9ee0a495bf2e6ff9c91a7834c1ba4fdd244a5e8aa4e537bd38aeae4b073aa611e0c611986565b604051611e199190613706565b60405180910390a1565b6000600b60019054906101000a900473ffffffffffffffffffffffffffffffffffffffff16905081600b60016101000a81548173ffffffffffffffffffffffffffffffffffffffff021916908373ffffffffffffffffffffffffffffffffffffffff1602179055508173ffffffffffffffffffffffffffffffffffffffff168173ffffffffffffffffffffffffffffffffffffffff167f8be0079c531659141344cd1fd0a4f28419497f9722a3daafe3b4186f6b6457e060405160405180910390a35050565b611f038282604051806020016040528060008152506127eb565b5050565b611f108261191a565b611f4f576040517f08c379a0000000000000000000000000000000000000000000000000000000008152600401611f46906139aa565b60405180910390fd5b80600a60008481526020019081526020016000209080519060200190611f76929190612dd4565b505050565b611f83610ca9565b15611fc3576040517f08c379a0000000000000000000000000000000000000000000000000000000008152600401611fba9061392a565b60405180910390fd5b6001600b60006101000a81548160ff0219169083151502179055507f62e78cea01bee320cd4e420270b5ea74000d11b0c9f74754ebdbfc544b05a258612007611986565b6040516120149190613706565b60405180910390a1565b8173ffffffffffffffffffffffffffffffffffffffff168373ffffffffffffffffffffffffffffffffffffffff16141561208d576040517f08c379a0000000000000000000000000000000000000000000000000000000008152600401612084906138aa565b60405180910390fd5b80600560008573ffffffffffffffffffffffffffffffffffffffff1673ffffffffffffffffffffffffffffffffffffffff16815260200190815260200160002060008473ffffffffffffffffffffffffffffffffffffffff1673ffffffffffffffffffffffffffffffffffffffff16815260200190815260200160002060006101000a81548160ff0219169083151502179055508173ffffffffffffffffffffffffffffffffffffffff168373ffffffffffffffffffffffffffffffffffffffff167f17307eab39ab6107e8899845ad3d59bd9653f200f220920489ca2b5937696c318360405161217e919061376d565b60405180910390a3505050565b612196848484611b25565b6121a284848484612846565b6121e1576040517f08c379a00000000000000000000000000000000000000000000000000000000081526004016121d89061382a565b60405180910390fd5b50505050565b60606121f28261191a565b612231576040517f08c379a000000000000000000000000000000000000000000000000000000000815260040161222890613a0a565b60405180910390fd5b6000600a6000848152602001908152602001600020805461225190613da9565b80601f016020809104026020016040519081016040528092919081815260200182805461227d90613da9565b80156122ca5780601f1061229f576101008083540402835291602001916122ca565b820191906000526020600020905b8154815290600101906020018083116122ad57829003601f168201915b5050505050905060006122db6129dd565b90506000815114156122f1578192505050612334565b60008251111561232657808260405160200161230e9291906136c0565b60405160208183030381529060405292505050612334565b61232f84612a6f565b925050505b919050565b6008805490506009600083815260200190815260200160002081905550600881908060018154018082558091505060019003906000526020600020016000909190919091505550565b6000600161238f84610e3c565b6123999190613cbf565b905060006007600084815260200190815260200160002054905081811461247e576000600660008673ffffffffffffffffffffffffffffffffffffffff1673ffffffffffffffffffffffffffffffffffffffff168152602001908152602001600020600084815260200190815260200160002054905080600660008773ffffffffffffffffffffffffffffffffffffffff1673ffffffffffffffffffffffffffffffffffffffff168152602001908152602001600020600084815260200190815260200160002081905550816007600083815260200190815260200160002081905550505b6007600084815260200190815260200160002060009055600660008573ffffffffffffffffffffffffffffffffffffffff1673ffffffffffffffffffffffffffffffffffffffff16815260200190815260200160002060008381526020019081526020016000206000905550505050565b600060016008805490506125039190613cbf565b9050600060096000848152602001908152602001600020549050600060088381548110612559577f4e487b7100000000000000000000000000000000000000000000000000000000600052603260045260246000fd5b9060005260206000200154905080600883815481106125a1577f4e487b7100000000000000000000000000000000000000000000000000000000600052603260045260246000fd5b906000526020600020018190555081600960008381526020019081526020016000208190555060096000858152602001908152602001600020600090556008805480612616577f4e487b7100000000000000000000000000000000000000000000000000000000600052603160045260246000fd5b6001900381819060005260206000200160009055905550505050565b600061263d83610e3c565b905081600660008573ffffffffffffffffffffffffffffffffffffffff1673ffffffffffffffffffffffffffffffffffffffff168152602001908152602001600020600083815260200190815260200160002081905550806007600084815260200190815260200160002081905550505050565b60007f80ac58cd000000000000000000000000000000000000000000000000000000007bffffffffffffffffffffffffffffffffffffffffffffffffffffffff1916827bffffffffffffffffffffffffffffffffffffffffffffffffffffffff1916148061277c57507f5b5e139f000000000000000000000000000000000000000000000000000000007bffffffffffffffffffffffffffffffffffffffffffffffffffffffff1916827bffffffffffffffffffffffffffffffffffffffffffffffffffffffff1916145b8061278c575061278b82612b16565b5b9050919050565b61279b610ca9565b156127db576040517f08c379a00000000000000000000000000000000000000000000000000000000081526004016127d29061392a565b60405180910390fd5b6127e6838383611787565b505050565b6127f58383612b80565b6128026000848484612846565b612841576040517f08c379a00000000000000000000000000000000000000000000000000000000081526004016128389061382a565b60405180910390fd5b505050565b60006128678473ffffffffffffffffffffffffffffffffffffffff16611774565b156129d0578373ffffffffffffffffffffffffffffffffffffffff1663150b7a02612890611986565b8786866040518563ffffffff1660e01b81526004016128b29493929190613721565b602060405180830381600087803b1580156128cc57600080fd5b505af19250505080156128fd57506040513d601f19601f820116820180604052508101906128fa9190613162565b60015b612980573d806000811461292d576040519150601f19603f3d011682016040523d82523d6000602084013e612932565b606091505b50600081511415612978576040517f08c379a000000000000000000000000000000000000000000000000000000000815260040161296f9061382a565b60405180910390fd5b805181602001fd5b63150b7a0260e01b7bffffffffffffffffffffffffffffffffffffffffffffffffffffffff1916817bffffffffffffffffffffffffffffffffffffffffffffffffffffffff1916149150506129d5565b600190505b949350505050565b6060601180546129ec90613da9565b80601f0160208091040260200160405190810160405280929190818152602001828054612a1890613da9565b8015612a655780601f10612a3a57610100808354040283529160200191612a65565b820191906000526020600020905b815481529060010190602001808311612a4857829003601f168201915b5050505050905090565b6060612a7a8261191a565b612ab9576040517f08c379a0000000000000000000000000000000000000000000000000000000008152600401612ab090613aaa565b60405180910390fd5b6000612ac36129dd565b90506000815111612ae35760405180602001604052806000815250612b0e565b80612aed846115c7565b604051602001612afe9291906136c0565b6040516020818303038152906040525b915050919050565b60007f01ffc9a7000000000000000000000000000000000000000000000000000000007bffffffffffffffffffffffffffffffffffffffffffffffffffffffff1916827bffffffffffffffffffffffffffffffffffffffffffffffffffffffff1916149050919050565b600073ffffffffffffffffffffffffffffffffffffffff168273ffffffffffffffffffffffffffffffffffffffff161415612bf0576040517f08c379a0000000000000000000000000000000000000000000000000000000008152600401612be7906139ea565b60405180910390fd5b612bf98161191a565b15612c39576040517f08c379a0000000000000000000000000000000000000000000000000000000008152600401612c309061386a565b60405180910390fd5b612c4560008383612793565b6001600360008473ffffffffffffffffffffffffffffffffffffffff1673ffffffffffffffffffffffffffffffffffffffff1681526020019081526020016000206000828254612c959190613bde565b92505081905550816002600083815260200190815260200160002060006101000a81548173ffffffffffffffffffffffffffffffffffffffff021916908373ffffffffffffffffffffffffffffffffffffffff160217905550808273ffffffffffffffffffffffffffffffffffffffff16600073ffffffffffffffffffffffffffffffffffffffff167fddf252ad1be2c89b69c2b068fc378daa952ba7f163c4a11628f55a4df523b3ef60405160405180910390a45050565b828054612d5a90613da9565b90600052602060002090601f016020900481019282612d7c5760008555612dc3565b82601f10612d9557803560ff1916838001178555612dc3565b82800160010185558215612dc3579182015b82811115612dc2578235825591602001919060010190612da7565b5b509050612dd09190612e5a565b5090565b828054612de090613da9565b90600052602060002090601f016020900481019282612e025760008555612e49565b82601f10612e1b57805160ff1916838001178555612e49565b82800160010185558215612e49579182015b82811115612e48578251825591602001919060010190612e2d565b5b509050612e569190612e5a565b5090565b5b80821115612e73576000816000905550600101612e5b565b5090565b6000612e8a612e8584613b6a565b613b45565b905082815260208101848484011115612ea257600080fd5b612ead848285613d67565b509392505050565b600081359050612ec48161467e565b92915050565b600081359050612ed981614695565b92915050565b600081359050612eee816146ac565b92915050565b600081519050612f03816146ac565b92915050565b600082601f830112612f1a57600080fd5b8135612f2a848260208601612e77565b91505092915050565b60008083601f840112612f4557600080fd5b8235905067ffffffffffffffff811115612f5e57600080fd5b602083019150836001820283011115612f7657600080fd5b9250929050565b600081359050612f8c816146c3565b92915050565b600060208284031215612fa457600080fd5b6000612fb284828501612eb5565b91505092915050565b60008060408385031215612fce57600080fd5b6000612fdc85828601612eb5565b9250506020612fed85828601612eb5565b9150509250929050565b60008060006060848603121561300c57600080fd5b600061301a86828701612eb5565b935050602061302b86828701612eb5565b925050604061303c86828701612f7d565b9150509250925092565b6000806000806080858703121561305c57600080fd5b600061306a87828801612eb5565b945050602061307b87828801612eb5565b935050604061308c87828801612f7d565b925050606085013567ffffffffffffffff8111156130a957600080fd5b6130b587828801612f09565b91505092959194509250565b600080604083850312156130d457600080fd5b60006130e285828601612eb5565b92505060206130f385828601612eca565b9150509250929050565b6000806040838503121561311057600080fd5b600061311e85828601612eb5565b925050602061312f85828601612f7d565b9150509250929050565b60006020828403121561314b57600080fd5b600061315984828501612edf565b91505092915050565b60006020828403121561317457600080fd5b600061318284828501612ef4565b91505092915050565b6000806020838503121561319e57600080fd5b600083013567ffffffffffffffff8111156131b857600080fd5b6131c485828601612f33565b92509250509250929050565b6000602082840312156131e257600080fd5b60006131f084828501612f7d565b91505092915050565b61320281613cf3565b82525050565b61321181613d05565b82525050565b600061322282613b9b565b61322c8185613bb1565b935061323c818560208601613d76565b61324581613f42565b840191505092915050565b600061325b82613ba6565b6132658185613bc2565b9350613275818560208601613d76565b61327e81613f42565b840191505092915050565b600061329482613ba6565b61329e8185613bd3565b93506132ae818560208601613d76565b80840191505092915050565b60006132c7601883613bc2565b91506132d282613f53565b602082019050919050565b60006132ea601483613bc2565b91506132f582613f7c565b602082019050919050565b600061330d600e83613bc2565b915061331882613fa5565b602082019050919050565b6000613330602b83613bc2565b915061333b82613fce565b604082019050919050565b6000613353603283613bc2565b915061335e8261401d565b604082019050919050565b6000613376602683613bc2565b91506133818261406c565b604082019050919050565b6000613399601c83613bc2565b91506133a4826140bb565b602082019050919050565b60006133bc602483613bc2565b91506133c7826140e4565b604082019050919050565b60006133df601983613bc2565b91506133ea82614133565b602082019050919050565b6000613402602783613bc2565b915061340d8261415c565b604082019050919050565b6000613425602c83613bc2565b9150613430826141ab565b604082019050919050565b6000613448600983613bc2565b9150613453826141fa565b602082019050919050565b600061346b601083613bc2565b915061347682614223565b602082019050919050565b600061348e603883613bc2565b91506134998261424c565b604082019050919050565b60006134b1602a83613bc2565b91506134bc8261429b565b604082019050919050565b60006134d4602983613bc2565b91506134df826142ea565b604082019050919050565b60006134f7602e83613bc2565b915061350282614339565b604082019050919050565b600061351a601f83613bc2565b915061352582614388565b602082019050919050565b600061353d602083613bc2565b9150613548826143b1565b602082019050919050565b6000613560603183613bc2565b915061356b826143da565b604082019050919050565b6000613583602c83613bc2565b915061358e82614429565b604082019050919050565b60006135a6600583613bd3565b91506135b182614478565b600582019050919050565b60006135c9601583613bc2565b91506135d4826144a1565b602082019050919050565b60006135ec602083613bc2565b91506135f7826144ca565b602082019050919050565b600061360f602983613bc2565b915061361a826144f3565b604082019050919050565b6000613632602f83613bc2565b915061363d82614542565b604082019050919050565b6000613655602183613bc2565b915061366082614591565b604082019050919050565b6000613678603183613bc2565b9150613683826145e0565b604082019050919050565b600061369b602c83613bc2565b91506136a68261462f565b604082019050919050565b6136ba81613d5d565b82525050565b60006136cc8285613289565b91506136d88284613289565b91508190509392505050565b60006136f08284613289565b91506136fb82613599565b915081905092915050565b600060208201905061371b60008301846131f9565b92915050565b600060808201905061373660008301876131f9565b61374360208301866131f9565b61375060408301856136b1565b81810360608301526137628184613217565b905095945050505050565b60006020820190506137826000830184613208565b92915050565b600060208201905081810360008301526137a28184613250565b905092915050565b600060208201905081810360008301526137c3816132ba565b9050919050565b600060208201905081810360008301526137e3816132dd565b9050919050565b6000602082019050818103600083015261380381613300565b9050919050565b6000602082019050818103600083015261382381613323565b9050919050565b6000602082019050818103600083015261384381613346565b9050919050565b6000602082019050818103600083015261386381613369565b9050919050565b600060208201905081810360008301526138838161338c565b9050919050565b600060208201905081810360008301526138a3816133af565b9050919050565b600060208201905081810360008301526138c3816133d2565b9050919050565b600060208201905081810360008301526138e3816133f5565b9050919050565b6000602082019050818103600083015261390381613418565b9050919050565b600060208201905081810360008301526139238161343b565b9050919050565b600060208201905081810360008301526139438161345e565b9050919050565b6000602082019050818103600083015261396381613481565b9050919050565b60006020820190508181036000830152613983816134a4565b9050919050565b600060208201905081810360008301526139a3816134c7565b9050919050565b600060208201905081810360008301526139c3816134ea565b9050919050565b600060208201905081810360008301526139e38161350d565b9050919050565b60006020820190508181036000830152613a0381613530565b9050919050565b60006020820190508181036000830152613a2381613553565b9050919050565b60006020820190508181036000830152613a4381613576565b9050919050565b60006020820190508181036000830152613a63816135bc565b9050919050565b60006020820190508181036000830152613a83816135df565b9050919050565b60006020820190508181036000830152613aa381613602565b9050919050565b60006020820190508181036000830152613ac381613625565b9050919050565b60006020820190508181036000830152613ae381613648565b9050919050565b60006020820190508181036000830152613b038161366b565b9050919050565b60006020820190508181036000830152613b238161368e565b9050919050565b6000602082019050613b3f60008301846136b1565b92915050565b6000613b4f613b60565b9050613b5b8282613ddb565b919050565b6000604051905090565b600067ffffffffffffffff821115613b8557613b84613f13565b5b613b8e82613f42565b9050602081019050919050565b600081519050919050565b600081519050919050565b600082825260208201905092915050565b600082825260208201905092915050565b600081905092915050565b6000613be982613d5d565b9150613bf483613d5d565b9250827fffffffffffffffffffffffffffffffffffffffffffffffffffffffffffffffff03821115613c2957613c28613e86565b5b828201905092915050565b6000613c3f82613d5d565b9150613c4a83613d5d565b925082613c5a57613c59613eb5565b5b828204905092915050565b6000613c7082613d5d565b9150613c7b83613d5d565b9250817fffffffffffffffffffffffffffffffffffffffffffffffffffffffffffffffff0483118215151615613cb457613cb3613e86565b5b828202905092915050565b6000613cca82613d5d565b9150613cd583613d5d565b925082821015613ce857613ce7613e86565b5b828203905092915050565b6000613cfe82613d3d565b9050919050565b60008115159050919050565b60007fffffffff0000000000000000000000000000000000000000000000000000000082169050919050565b600073ffffffffffffffffffffffffffffffffffffffff82169050919050565b6000819050919050565b82818337600083830152505050565b60005b83811015613d94578082015181840152602081019050613d79565b83811115613da3576000848401525b50505050565b60006002820490506001821680613dc157607f821691505b60208210811415613dd557613dd4613ee4565b5b50919050565b613de482613f42565b810181811067ffffffffffffffff82111715613e0357613e02613f13565b5b80604052505050565b6000613e1782613d5d565b91507fffffffffffffffffffffffffffffffffffffffffffffffffffffffffffffffff821415613e4a57613e49613e86565b5b600182019050919050565b6000613e6082613d5d565b9150613e6b83613d5d565b925082613e7b57613e7a613eb5565b5b828206905092915050565b7f4e487b7100000000000000000000000000000000000000000000000000000000600052601160045260246000fd5b7f4e487b7100000000000000000000000000000000000000000000000000000000600052601260045260246000fd5b7f4e487b7100000000000000000000000000000000000000000000000000000000600052602260045260246000fd5b7f4e487b7100000000000000000000000000000000000000000000000000000000600052604160045260246000fd5b6000601f19601f8301169050919050565b7f596f757220636f73742077617320696e636f72726563742e0000000000000000600082015250565b7f5061757361626c653a206e6f7420706175736564000000000000000000000000600082015250565b7f57686f2061726520796f7520213f000000000000000000000000000000000000600082015250565b7f455243373231456e756d657261626c653a206f776e657220696e646578206f7560008201527f74206f6620626f756e6473000000000000000000000000000000000000000000602082015250565b7f4552433732313a207472616e7366657220746f206e6f6e20455243373231526560008201527f63656976657220696d706c656d656e7465720000000000000000000000000000602082015250565b7f4f776e61626c653a206e6577206f776e657220697320746865207a65726f206160008201527f6464726573730000000000000000000000000000000000000000000000000000602082015250565b7f4552433732313a20746f6b656e20616c7265616479206d696e74656400000000600082015250565b7f4552433732313a207472616e7366657220746f20746865207a65726f2061646460008201527f7265737300000000000000000000000000000000000000000000000000000000602082015250565b7f4552433732313a20617070726f766520746f2063616c6c657200000000000000600082015250565b7f41626f766520746865206d6178207075726368617365207175616e746974792060008201527f7065722074782e00000000000000000000000000000000000000000000000000602082015250565b7f4552433732313a206f70657261746f7220717565727920666f72206e6f6e657860008201527f697374656e7420746f6b656e0000000000000000000000000000000000000000602082015250565b7f4e6f204e6f204e6f7e0000000000000000000000000000000000000000000000600082015250565b7f5061757361626c653a2070617573656400000000000000000000000000000000600082015250565b7f4552433732313a20617070726f76652063616c6c6572206973206e6f74206f7760008201527f6e6572206e6f7220617070726f76656420666f7220616c6c0000000000000000602082015250565b7f4552433732313a2062616c616e636520717565727920666f7220746865207a6560008201527f726f206164647265737300000000000000000000000000000000000000000000602082015250565b7f4552433732313a206f776e657220717565727920666f72206e6f6e657869737460008201527f656e7420746f6b656e0000000000000000000000000000000000000000000000602082015250565b7f45524337323155524953746f726167653a2055524920736574206f66206e6f6e60008201527f6578697374656e7420746f6b656e000000000000000000000000000000000000602082015250565b7f41626f766520746865206d617820686f6c64696e67207175616e746974792e00600082015250565b7f4552433732313a206d696e7420746f20746865207a65726f2061646472657373600082015250565b7f45524337323155524953746f726167653a2055524920717565727920666f722060008201527f6e6f6e6578697374656e7420746f6b656e000000000000000000000000000000602082015250565b7f4552433732313a20617070726f76656420717565727920666f72206e6f6e657860008201527f697374656e7420746f6b656e0000000000000000000000000000000000000000602082015250565b7f2e6a736f6e000000000000000000000000000000000000000000000000000000600082015250565b7f41626f766520746865206d617820737570706c792e0000000000000000000000600082015250565b7f4f776e61626c653a2063616c6c6572206973206e6f7420746865206f776e6572600082015250565b7f4552433732313a207472616e73666572206f6620746f6b656e2074686174206960008201527f73206e6f74206f776e0000000000000000000000000000000000000000000000602082015250565b7f4552433732314d657461646174613a2055524920717565727920666f72206e6f60008201527f6e6578697374656e7420746f6b656e0000000000000000000000000000000000602082015250565b7f4552433732313a20617070726f76616c20746f2063757272656e74206f776e6560008201527f7200000000000000000000000000000000000000000000000000000000000000602082015250565b7f4552433732313a207472616e736665722063616c6c6572206973206e6f74206f60008201527f776e6572206e6f7220617070726f766564000000000000000000000000000000602082015250565b7f455243373231456e756d657261626c653a20676c6f62616c20696e646578206f60008201527f7574206f6620626f756e64730000000000000000000000000000000000000000602082015250565b61468781613cf3565b811461469257600080fd5b50565b61469e81613d05565b81146146a957600080fd5b50565b6146b581613d11565b81146146c057600080fd5b50565b6146cc81613d5d565b81146146d757600080fd5b5056fea264697066735822122028658ecc76af78117784a2a061989ce2d4c3243be488b683360bcf712a58915f64736f6c63430008040033",
  "linkReferences": {},
  "deployedLinkReferences": {}
}