{
  "_format": "hh-sol-artifact-1",
  "contractName": "Market",
  "sourceName": "contracts/Market.sol",
  "abi": [
    {
      "anonymous": false,
      "inputs": [
        {
          "indexed": true,
          "internalType": "uint256",
          "name": "itemId",
          "type": "uint256"
        },
        {
          "indexed": true,
          "internalType": "address",
          "name": "nftContract",
          "type": "address"
        },
        {
          "indexed": true,
          "internalType": "uint256",
          "name": "tokenId",
          "type": "uint256"
        },
        {
          "indexed": false,
          "internalType": "address",
          "name": "lender",
          "type": "address"
        },
        {
          "indexed": false,
          "internalType": "address",
          "name": "renter",
          "type": "address"
        },
        {
          "indexed": false,
          "internalType": "uint256",
          "name": "price",
          "type": "uint256"
        },
        {
          "indexed": false,
          "internalType": "uint256",
          "name": "deposit",
          "type": "uint256"
        },
        {
          "indexed": false,
          "internalType": "uint256",
          "name": "validTime",
          "type": "uint256"
        }
      ],
      "name": "MarketItemCreated",
      "type": "event"
    },
    {
      "inputs": [
        {
          "internalType": "address",
          "name": "nftContract",
          "type": "address"
        },
        {
          "internalType": "uint256",
          "name": "tokenId",
          "type": "uint256"
        },
        {
          "internalType": "uint256",
          "name": "price",
          "type": "uint256"
        },
        {
          "internalType": "uint256",
          "name": "deposit",
          "type": "uint256"
        },
        {
          "internalType": "uint256",
          "name": "validTime",
          "type": "uint256"
        }
      ],
      "name": "createMarketItem",
      "outputs": [],
      "stateMutability": "payable",
      "type": "function"
    },
    {
      "inputs": [],
      "name": "fetchMarketItems",
      "outputs": [
        {
          "components": [
            {
              "internalType": "uint256",
              "name": "itemId",
              "type": "uint256"
            },
            {
              "internalType": "address",
              "name": "nftContract",
              "type": "address"
            },
            {
              "internalType": "uint256",
              "name": "tokenId",
              "type": "uint256"
            },
            {
              "internalType": "address payable",
              "name": "lender",
              "type": "address"
            },
            {
              "internalType": "address payable",
              "name": "renter",
              "type": "address"
            },
            {
              "internalType": "uint256",
              "name": "price",
              "type": "uint256"
            },
            {
              "internalType": "uint256",
              "name": "deposit",
              "type": "uint256"
            },
            {
              "internalType": "uint256",
              "name": "validTime",
              "type": "uint256"
            }
          ],
          "internalType": "struct Market.MarketItem[]",
          "name": "",
          "type": "tuple[]"
        }
      ],
      "stateMutability": "view",
      "type": "function"
    },
    {
      "inputs": [],
      "name": "fetchMyMarketItems",
      "outputs": [
        {
          "internalType": "string",
          "name": "",
          "type": "string"
        }
      ],
      "stateMutability": "pure",
      "type": "function"
    },
    {
      "inputs": [],
      "name": "fetchMyRentingItems",
      "outputs": [
        {
          "internalType": "string",
          "name": "",
          "type": "string"
        }
      ],
      "stateMutability": "pure",
      "type": "function"
    },
    {
      "inputs": [
        {
          "internalType": "uint256",
          "name": "marketItemId",
          "type": "uint256"
        }
      ],
      "name": "getMarketItem",
      "outputs": [
        {
          "components": [
            {
              "internalType": "uint256",
              "name": "itemId",
              "type": "uint256"
            },
            {
              "internalType": "address",
              "name": "nftContract",
              "type": "address"
            },
            {
              "internalType": "uint256",
              "name": "tokenId",
              "type": "uint256"
            },
            {
              "internalType": "address payable",
              "name": "lender",
              "type": "address"
            },
            {
              "internalType": "address payable",
              "name": "renter",
              "type": "address"
            },
            {
              "internalType": "uint256",
              "name": "price",
              "type": "uint256"
            },
            {
              "internalType": "uint256",
              "name": "deposit",
              "type": "uint256"
            },
            {
              "internalType": "uint256",
              "name": "validTime",
              "type": "uint256"
            }
          ],
          "internalType": "struct Market.MarketItem",
          "name": "",
          "type": "tuple"
        }
      ],
      "stateMutability": "view",
      "type": "function"
    },
    {
      "inputs": [
        {
          "internalType": "address",
          "name": "nftContract",
          "type": "address"
        },
        {
          "internalType": "uint256",
          "name": "itemId",
          "type": "uint256"
        }
      ],
      "name": "rentMarketItem",
      "outputs": [],
      "stateMutability": "payable",
      "type": "function"
    }
  ],
  "bytecode": "0x608060405234801561001057600080fd5b506001600081905550611497806100286000396000f3fe6080604052600436106100555760003560e01c80630f08efe01461005a5780638c52e5481461008557806392083b91146100a1578063b637dbf3146100bd578063c7be7a49146100e8578063dd3385b714610125575b600080fd5b34801561006657600080fd5b5061006f610150565b60405161007c91906110e9565b60405180910390f35b61009f600480360381019061009a9190610cdb565b610460565b005b6100bb60048036038101906100b69190610d17565b61070f565b005b3480156100c957600080fd5b506100d2610a2a565b6040516100df919061110b565b60405180910390f35b3480156100f457600080fd5b5061010f600480360381019061010a9190610d8e565b610a67565b60405161011c919061118d565b60405180910390f35b34801561013157600080fd5b5061013a610bc9565b604051610147919061110b565b60405180910390f35b6060600061015e6001610c06565b9050600061016c6002610c06565b6101766001610c06565b6101809190611254565b90506000808267ffffffffffffffff8111156101c5577f4e487b7100000000000000000000000000000000000000000000000000000000600052604160045260246000fd5b6040519080825280602002602001820160405280156101fe57816020015b6101eb610c2a565b8152602001906001900390816101e35790505b50905060005b8481101561045557600073ffffffffffffffffffffffffffffffffffffffff166004600060018461023591906111fe565b815260200190815260200160002060040160009054906101000a900473ffffffffffffffffffffffffffffffffffffffff1673ffffffffffffffffffffffffffffffffffffffff16141561044257600060018261029291906111fe565b905060006004600083815260200190815260200160002090508060405180610100016040529081600082015481526020016001820160009054906101000a900473ffffffffffffffffffffffffffffffffffffffff1673ffffffffffffffffffffffffffffffffffffffff1673ffffffffffffffffffffffffffffffffffffffff168152602001600282015481526020016003820160009054906101000a900473ffffffffffffffffffffffffffffffffffffffff1673ffffffffffffffffffffffffffffffffffffffff1673ffffffffffffffffffffffffffffffffffffffff1681526020016004820160009054906101000a900473ffffffffffffffffffffffffffffffffffffffff1673ffffffffffffffffffffffffffffffffffffffff1673ffffffffffffffffffffffffffffffffffffffff1681526020016005820154815260200160068201548152602001600782015481525050848681518110610425577f4e487b7100000000000000000000000000000000000000000000000000000000600052603260045260246000fd5b602002602001018190525060018561043d91906111fe565b945050505b808061044d90611309565b915050610204565b508094505050505090565b600260005414156104a6576040517f08c379a000000000000000000000000000000000000000000000000000000000815260040161049d9061114d565b60405180910390fd5b6002600081905550600060046000838152602001908152602001600020600501549050600060046000848152602001908152602001600020600601549050600060046000858152602001908152602001600020600201549050818361050b91906111fe565b341461054c576040517f08c379a00000000000000000000000000000000000000000000000000000000081526004016105439061112d565b60405180910390fd5b600360009054906101000a900473ffffffffffffffffffffffffffffffffffffffff1673ffffffffffffffffffffffffffffffffffffffff166108fc839081150290604051600060405180830381858888f193505050501580156105b4573d6000803e3d6000fd5b506004600085815260200190815260200160002060030160009054906101000a900473ffffffffffffffffffffffffffffffffffffffff1673ffffffffffffffffffffffffffffffffffffffff166108fc849081150290604051600060405180830381858888f19350505050158015610631573d6000803e3d6000fd5b508473ffffffffffffffffffffffffffffffffffffffff166323b872dd3033846040518463ffffffff1660e01b815260040161066f9392919061105f565b600060405180830381600087803b15801561068957600080fd5b505af115801561069d573d6000803e3d6000fd5b50505050336004600086815260200190815260200160002060040160006101000a81548173ffffffffffffffffffffffffffffffffffffffff021916908373ffffffffffffffffffffffffffffffffffffffff1602179055506107006002610c14565b50505060016000819055505050565b60026000541415610755576040517f08c379a000000000000000000000000000000000000000000000000000000000815260040161074c9061114d565b60405180910390fd5b6002600081905550600083116107a0576040517f08c379a00000000000000000000000000000000000000000000000000000000081526004016107979061116d565b60405180910390fd5b6107aa6001610c14565b60006107b66001610c06565b90506040518061010001604052808281526020018773ffffffffffffffffffffffffffffffffffffffff1681526020018681526020013373ffffffffffffffffffffffffffffffffffffffff168152602001600073ffffffffffffffffffffffffffffffffffffffff16815260200185815260200184815260200183815250600460008381526020019081526020016000206000820151816000015560208201518160010160006101000a81548173ffffffffffffffffffffffffffffffffffffffff021916908373ffffffffffffffffffffffffffffffffffffffff1602179055506040820151816002015560608201518160030160006101000a81548173ffffffffffffffffffffffffffffffffffffffff021916908373ffffffffffffffffffffffffffffffffffffffff16021790555060808201518160040160006101000a81548173ffffffffffffffffffffffffffffffffffffffff021916908373ffffffffffffffffffffffffffffffffffffffff16021790555060a0820151816005015560c0820151816006015560e082015181600701559050508573ffffffffffffffffffffffffffffffffffffffff166323b872dd3330886040518463ffffffff1660e01b815260040161098f9392919061105f565b600060405180830381600087803b1580156109a957600080fd5b505af11580156109bd573d6000803e3d6000fd5b50505050848673ffffffffffffffffffffffffffffffffffffffff16827ff242560f0024992fe07f4436dea7b6fbf4a37fade2d9959bf27aef01cc7ee766336000898989604051610a12959493929190611096565b60405180910390a45060016000819055505050505050565b60606040518060400160405280600881526020017f7570636f6d696e67000000000000000000000000000000000000000000000000815250905090565b610a6f610c2a565b6004600083815260200190815260200160002060405180610100016040529081600082015481526020016001820160009054906101000a900473ffffffffffffffffffffffffffffffffffffffff1673ffffffffffffffffffffffffffffffffffffffff1673ffffffffffffffffffffffffffffffffffffffff168152602001600282015481526020016003820160009054906101000a900473ffffffffffffffffffffffffffffffffffffffff1673ffffffffffffffffffffffffffffffffffffffff1673ffffffffffffffffffffffffffffffffffffffff1681526020016004820160009054906101000a900473ffffffffffffffffffffffffffffffffffffffff1673ffffffffffffffffffffffffffffffffffffffff1673ffffffffffffffffffffffffffffffffffffffff16815260200160058201548152602001600682015481526020016007820154815250509050919050565b60606040518060400160405280600881526020017f7570636f6d696e67000000000000000000000000000000000000000000000000815250905090565b600081600001549050919050565b6001816000016000828254019250508190555050565b60405180610100016040528060008152602001600073ffffffffffffffffffffffffffffffffffffffff16815260200160008152602001600073ffffffffffffffffffffffffffffffffffffffff168152602001600073ffffffffffffffffffffffffffffffffffffffff1681526020016000815260200160008152602001600081525090565b600081359050610cc081611433565b92915050565b600081359050610cd58161144a565b92915050565b60008060408385031215610cee57600080fd5b6000610cfc85828601610cb1565b9250506020610d0d85828601610cc6565b9150509250929050565b600080600080600060a08688031215610d2f57600080fd5b6000610d3d88828901610cb1565b9550506020610d4e88828901610cc6565b9450506040610d5f88828901610cc6565b9350506060610d7088828901610cc6565b9250506080610d8188828901610cc6565b9150509295509295909350565b600060208284031215610da057600080fd5b6000610dae84828501610cc6565b91505092915050565b6000610dc38383610efd565b6101008301905092915050565b610dd98161129a565b82525050565b610de881611288565b82525050565b610df781611288565b82525050565b6000610e08826111b9565b610e1281856111dc565b9350610e1d836111a9565b8060005b83811015610e4e578151610e358882610db7565b9750610e40836111cf565b925050600181019050610e21565b5085935050505092915050565b6000610e66826111c4565b610e7081856111ed565b9350610e808185602086016112d6565b610e8981611381565b840191505092915050565b6000610ea16040836111ed565b9150610eac82611392565b604082019050919050565b6000610ec4601f836111ed565b9150610ecf826113e1565b602082019050919050565b6000610ee7601c836111ed565b9150610ef28261140a565b602082019050919050565b61010082016000820151610f146000850182611041565b506020820151610f276020850182610ddf565b506040820151610f3a6040850182611041565b506060820151610f4d6060850182610dd0565b506080820151610f606080850182610dd0565b5060a0820151610f7360a0850182611041565b5060c0820151610f8660c0850182611041565b5060e0820151610f9960e0850182611041565b50505050565b61010082016000820151610fb66000850182611041565b506020820151610fc96020850182610ddf565b506040820151610fdc6040850182611041565b506060820151610fef6060850182610dd0565b5060808201516110026080850182610dd0565b5060a082015161101560a0850182611041565b5060c082015161102860c0850182611041565b5060e082015161103b60e0850182611041565b50505050565b61104a816112cc565b82525050565b611059816112cc565b82525050565b60006060820190506110746000830186610dee565b6110816020830185610dee565b61108e6040830184611050565b949350505050565b600060a0820190506110ab6000830188610dee565b6110b86020830187610dee565b6110c56040830186611050565b6110d26060830185611050565b6110df6080830184611050565b9695505050505050565b600060208201905081810360008301526111038184610dfd565b905092915050565b600060208201905081810360008301526111258184610e5b565b905092915050565b6000602082019050818103600083015261114681610e94565b9050919050565b6000602082019050818103600083015261116681610eb7565b9050919050565b6000602082019050818103600083015261118681610eda565b9050919050565b6000610100820190506111a36000830184610f9f565b92915050565b6000819050602082019050919050565b600081519050919050565b600081519050919050565b6000602082019050919050565b600082825260208201905092915050565b600082825260208201905092915050565b6000611209826112cc565b9150611214836112cc565b9250827fffffffffffffffffffffffffffffffffffffffffffffffffffffffffffffffff0382111561124957611248611352565b5b828201905092915050565b600061125f826112cc565b915061126a836112cc565b92508282101561127d5761127c611352565b5b828203905092915050565b6000611293826112ac565b9050919050565b60006112a5826112ac565b9050919050565b600073ffffffffffffffffffffffffffffffffffffffff82169050919050565b6000819050919050565b60005b838110156112f45780820151818401526020810190506112d9565b83811115611303576000848401525b50505050565b6000611314826112cc565b91507fffffffffffffffffffffffffffffffffffffffffffffffffffffffffffffffff82141561134757611346611352565b5b600182019050919050565b7f4e487b7100000000000000000000000000000000000000000000000000000000600052601160045260246000fd5b6000601f19601f8301169050919050565b7f506c65617365207375626d6974207468652061736b696e67207072696365206960008201527f6e206f7264657220746f20636f6d706c65746520746865207075726368617365602082015250565b7f5265656e7472616e637947756172643a207265656e7472616e742063616c6c00600082015250565b7f5072696365206d757374206265206174206c6561737420312077656900000000600082015250565b61143c81611288565b811461144757600080fd5b50565b611453816112cc565b811461145e57600080fd5b5056fea26469706673582212203d1dd19376a5463f641bf47c52ab5f96a0b89b50016322086ad4e40dbccfe03464736f6c63430008040033",
  "linkReferences": {},
  "deployedLinkReferences": {}
}